:020000040800F2
:10000000F81F0020050100087D160008F315000800
:100010007916000819130008EF26000800000000F8
:10002000000000000000000000000000911A00081D
:10003000131400080000000005170008491C000800
:100040001F0100081F0100081F0100081F01000810
:100050001F0100081F0100081F0100081F01000800
:100060001F0100081F0100081F0100081F010008F0
:100070001F0100081F0100081F0100081F010008E0
:100080001D1300081F0100081F0100081F010008C0
:100090001F0100081F0100081F0100081F010008C0
:1000A0001F0100081F0100081F0100081F010008B0
:1000B000251F0008512000081F0100081F0100082B
:1000C0001F0100081F0100081F0100081F01000890
:1000D0001F010008552200081F01000879230008AD
:1000E0001F0100081F0100081F010008DFF810D0E1
:1000F00000F0D2FD00480047D1450008AFF3008072
:10010000F81F00200648804706480047FEE7FEE744
:10011000FEE7FEE7FEE7FEE7FEE7FEE7FEE7FEE7B7
:10012000B91C0008ED00000840EA01039B0703D05A
:1001300009E008C9121F08C0042AFAD203E011F826
:10014000013B00F8013B521EF9D27047D2B201E0E8
:1001500000F8012B491EFBD270470022F6E710B5CC
:1001600013460A4604461946FFF7F0FF204610BD25
:10017000421C10F8011B0029FBD1801A704703466E
:1001800011F8012B00F8012B002AF9D1184670470D
:100190000FB400B58DB010A909900B9000914FF0ED
:1001A000FF300A9000200C90054806900548079003
:1001B0006A4609A80F9900F045FC0DB05DF814FBE4
:1001C000610A00087F0A00082DE9FF5F1D464FF015
:1001D000FF3BD5E9014691465F464FF00008A9690B
:1001E0007F1C01988847296A824688470028F6D1F3
:1001F000BAF1FF3F0CD024F4C064002E19DD600674
:1002000014D5BAF12B0F09D0BAF12D0F0ED103E09E
:10021000584604B0BDE8F09F44F48064A9697F1C8F
:1002200001988847761E8246002E02DDBAF1300F13
:1002300003D0B9F1000F26D032E0A969761E44F44C
:1002400000747F1C019888478246002E05DDBAF1B4
:10025000780F06D0BAF1580F03D0B9F1000F10D0C3
:100260001EE0B9F1000F02D0B9F1100F18D1A96941
:10027000761E24F400747F1C019888478246102063
:1002800002E0082000E00A20814609E008FB090896
:10029000A969761E44F400747F1C01988847824641
:1002A000002E05DD4946504600F0B7FB0028EDDA88
:1002B000E96901988847A00502D46FF00100A8E71A
:1002C000E00725D1600613D5600502D5C8F100000E
:1002D00000E0404629680A1D2A600968220501D508
:1002E000087015E0220701D5088011E008600FE0D2
:1002F0002868011D29600068210502D580F800806A
:1003000006E0210702D5A0F8008001E0C0F80080D7
:1003100038467EE7F0B480EA0102D40F4200B2EB27
:10032000410F02D20246084611464A0042D0C30D90
:10033000DDB2C1F3C752AD1A202D35DAC1F3160173
:1003400041F4000204B15242C5F1200602FA06F15E
:100350002A411044B3EBD05F23D0C4B1012DA0EBF0
:10036000C35009DCF0BC4FF0004202EAC352DBB2DA
:1003700000F5000000F09DBB400000F1807000EB34
:10038000C350A0F1807040EAD170490009E04908EB
:1003900041EAC071A0EBC35000F50000400800EB3B
:1003A000C350F0BC00F07CBB6142012202EB410172
:1003B000001BF6E7F0BC704781F00041AAE780F02F
:1003C0000040A7E780EA010210B502F000434000B8
:1003D00022D04A001FD0010E01EB1261C0F356007B
:1003E000C2F3560240F4000042F40002A0FB0220D7
:1003F00000047F39140400D0401C50EA124001D49C
:100400004000491EC2B20C0604EBD010401C40084C
:10041000802A02D003E0002010BD20F00100002956
:1004200000DA0020184310BD30B480EA010202F067
:10043000004530F0004221F0004013D090B1C30DD0
:10044000D40DC2F31601C0F31600E41A41F4000102
:1004500040F400027D34914201D3641C00E0490065
:10046000002C02DA30BC002070474FF4000000235B
:10047000914201D3891A034340084FEA4101F7D161
:1004800051B1914202D14FF0004105E002D24FF04C
:10049000010101E06FF0010103EBC450284430BCBE
:1004A00000F0FEBA2DE9FE4F804681EA0300C00F3E
:1004B0000C46009021F0004123F00045B8EB02000B
:1004C000A94105D24046214690461C460B460246AD
:1004D00023F00040104347D0270DC7F30A00C3F3B1
:1004E0000A510290401A019040286BDAC3F31300BE
:1004F00040F4801B0098924620B10023D2EB030AFF
:1005000063EB0B0B01985946C0F14002504600F0D6
:1005100053FA06460D4650465946019A00F06BFACA
:1005200010EB08006141002487EA115284EAE77366
:100530001A4340D0009A62B3019A012A4FEA075247
:1005400015DC001B61EB02014FF0004202EA07528A
:10055000CDE90042001C41F5801132462B4600F0E7
:10056000E5FA03B0BDE8F08F40462146F9E7001BED
:1005700061EB0201001C41F5801300185B4120185B
:10058000A2F5001747EB030140EAD570B6196D419B
:1005900011E06D084FEA360645EAC0754FEA07528A
:1005A000001B61EB0201001C41F5801149084FEA74
:1005B00030000019514132462B4603B0BDE8F04FE0
:1005C00000F0A5BA0098012240000023D0EB0202FF
:1005D00063EBE073009821464FEAE074B8EB00004B
:1005E00061EB0401E9E783F000435BE781F0004140
:1005F00058E72DE9FE4F81EA030404F0004421F09E
:10060000004100944FF0000B23F0004350EA010436
:100610005ED052EA03045BD0C3F30A54C1F30A5517
:100620002C44A4F2F3340194A0FB0254C1F313014F
:1006300041F48011C3F3130343F4801301FB02441C
:1006400000FB034E840A970A44EA815447EA835721
:10065000A4FB076802958D0A05FB07854FEA932CDA
:1006600004FB0C542705029D4FEA065847EA16374B
:10067000B5EB08056EEB070C870E920E47EA811763
:1006800042EA8312A7FB0201B6EB0B0164EB000404
:100690002B0D43EA0C335E1844EB1C50DA465146EE
:1006A000E7FB0201C5F313044FEA0B3343EA14538B
:1006B0004FEA0432019C43EA0603A4F10C040294BD
:1006C000009CCDE900B400F031FA03B0BDE8F08F32
:1006D00000200146F9E72DE9F04D81EA030404F01A
:1006E000004B21F0004514464FF0000A23F0004172
:1006F00050EA050220D054EA01021DD0C5F30A5782
:100700000246C5F31303C1F31300C1F30A5640F4C4
:10071000801543F48013A7EB0608101BD64608F299
:10072000FD3873EB050002D308F1010801E09218CF
:100730005B41B8F1000F03DA00200146BDE8F08DFF
:1007400000204FF48011064684460EE0171B73EB21
:10075000050705D3121B63EB050306434CEA010CA6
:1007600049084FEA300092185B4150EA0107EDD189
:1007700052EA030012D082EA040083EA050108432A
:1007800005D0101BAB4106D20122002306E0002257
:100790004FF0004302E06FF0010253101AEB060025
:1007A0004CEB085110EB0A0041EB0B01BDE8F04D9A
:1007B00000F0ADB9C10F80EAE0700844CA07962383
:1007C000002100F076B996230022114600F071B99D
:1007D0000EB5C10F80EAE0700844CA07002140F25C
:1007E00033438DE80E000A460B4600F09FF903B034
:1007F00000BD0EB540F2334102910021CDE9001158
:100800000A460B4600F092F903B000BD00F000422A
:1008100020F00040C10DC0F3160040F400007F2915
:1008200001DA00207047962903DCC1F19601C84027
:1008300001E096398840002AF4D04042704720F009
:100840000040C10DC0F3160040F400007F2901DA1A
:1008500000207047962903DCC1F19601C84070471B
:1008600096398840704770B5C1F30A5201F00045CF
:100870000024C1F3130140F2FF3341F480119A4286
:1008800001DA002070BD40F233439A42A2F23342B3
:1008900003DC524200F09FF800E090402C43F1D07E
:1008A000404270BD00F0004230F000400AD0C10D5F
:1008B00001F56071C0F3160042EA0151C208400719
:1008C00011437047002001467047000030B5041EF8
:1008D00071F1000404DB4FF00044404264EB01017D
:1008E000141E73F1000405DB1C464FF00043524216
:1008F00063EB04038B4208BF824230BD30B5041E57
:1009000071F1000404DB4FF00044404264EB01014C
:10091000141E73F1000405DB1C464FF000435242E5
:1009200063EB0403994208BF904230BD01F00043DD
:1009300030B421F0004150EA010206D00A0DA2F5C0
:100940006072C1F31301002A02DC30BC0020704742
:10095000440F44EAC104C100E01830BC00EBC250AF
:1009600000F09EB8002801DBC0F10040002901DB47
:10097000C1F1004181427047002801DBC0F1004015
:10098000002901DBC1F100418842704730B50B46B8
:10099000014600202022012409E021FA02F59D42AF
:1009A00005D303FA02F5491B04FA02F52844151E83
:1009B000A2F10102F1DC30BD202A04DB203A00FA6A
:1009C00002F1002070479140C2F1200320FA03F3A6
:1009D000194390407047202A04DB203A21FA02F0A4
:1009E0000021704721FA02F3D040C2F12002914069
:1009F000084319467047202A06DBCB17203A41FAF4
:100A000002F043EAE07306E041FA02F3D040C2F19B
:100A1000200291400843194670473A2800D23038E6
:100A200020F02002412A01D3A2F13700884201D3ED
:100A30004FF0FF30704700000268114413780160E6
:100A400018467047D1600449516104491162002180
:100A50001161114600F038B9390A0008BD0C0008D0
:100A6000426842B1016811F8013B23B1521EC0E94E
:100A70000012184670470121C160881E7047426805
:100A80005AB1C368016843B983688B4205D0491ED7
:100A9000521CC0E90012002070474FF0FF30704731
:100AA0000029A8BF7047401C490008BF20F0010082
:100AB000704710B4B0FA80FC00FA0CF050EA010460
:100AC00004BF10BC704749B1CCF1200421FA04F4F2
:100AD00011FA0CF118BF012121430843A3EB0C01CB
:100AE000CB1D4FEA00614FEA102042BF002010BC2E
:100AF000704700EBC35010440029A4BF10BC7047DE
:100B0000401C490008BF20F0010010BC704710B520
:100B1000141E73F1000408DA401C41F10001921820
:100B20005B411A4301D120F0010010BD2DE9F04DC9
:100B300092469B4611B1B1FA81F202E0B0FA80F21E
:100B400020329046FFF738FF04460F4640EA0A007D
:100B500041EA0B0153465A46084313D0114653EA63
:100B6000010019D0C8F140025046FFF734FF054696
:100B70000E46504659464246FFF71EFF084305D031
:100B8000012004E020463946BDE8F08D00200543F1
:100B900046EAE0762C4337430A986305E40AA0EB63
:100BA00008000022FD0A44EA47540A3002D500201A
:100BB0000146E9E7010510196941DDE90845001919
:100BC0006941BDE8F04DA2E770B521F00043034351
:100BD0000CD0C1F30A550024D5EB040564EB0403E3
:100BE000D617AD1AB34102DB0020014670BD2018B4
:100BF00041EB025170BD2DE9F04D00231A461B1A3E
:100C00008A4103DB00200146BDE8F08DC1F30A52A2
:100C1000C1F3130141F480154FF0000BD10702D14D
:100C200000186D41521E0027044640F2FF1138465D
:100C300001EB620A3E468046024600204FF48011D6
:100C4000FFF7C9FEC2197141BB1846EB0100B4EBB6
:100C5000030C75EB000C04D3E41A65EB0005174692
:100C60000E46241908F101006D4180463428E3DD69
:100C7000F91946EB0600091BA84103D24FF0FF32D9
:100C8000134601E0002213461BEB070046EB0A5116
:100C9000BDE8F04DFFF73BBF064C074D06E0E068AE
:100CA00040F0010394E8070098471034AC42F6D3B3
:100CB000FFF720FA2C6C00084C6C0008C0B24FF40F
:100CC000F05100F099B900002DE9F34F8BB04FF0CF
:100CD000000801F10C000C464FF0010B46460DF1E7
:100CE000080A01906269012101989047051E2DD0E4
:100CF000252D2CD0216A8847C0B162690121019855
:100D00009047216A88470028F7D1411E62690198FF
:100D1000904700E0761CA1690B988847216A8847B4
:100D20000028F7D1E1690B988847DBE7A1690B98A8
:100D300088470746A84201D1761CD3E7E1690B98A2
:100D400088477F1C02D1B8F1000F6FD047E1002720
:100D500062693D463946019890472A2804D1626964
:100D60000121019890470125DFF8889262690121ED
:100D700001989047A0F130010A290AD24F45E5DCDD
:100D800007EB870100EB4107303FDFD445F010054A
:100D9000ECE7E90601D46FF000476C280AD04C2834
:100DA00014D0682815D06A280DD074281CD07A2851
:100DB0001AD01DE062690121019890476C2802D089
:100DC00045F0040514E045F002050DE045F020056E
:100DD0000AE06269012101989047682802D045F035
:100DE000080505E045F40065626901210198904716
:100DF000C4E9015765283DD019DC58287AD00CDCAD
:100E0000452837D004DC252826D0412831D131E0CF
:100E100046282FD047282CD12CE05B2877D061289A
:100E200028D063287CD0642823D15AE0D1E06F28F1
:100E300048D008DC66281DD067281BD0692821D03F
:100E40006E2816D127E0702845D0732868D0752801
:100E500047D078280DD14DE0A1690B988847054609
:100E600025283FF469AFE1690B9888476D1C3FF472
:100E70006AAFB4E023466A466FF001000B99AFF306
:100E800000809FE045F040006060A80723464FF0D7
:100E9000000236D43EE0E8077FF447AF2068011D2A
:100EA00021600068290501D506701BE7290701D5D7
:100EB000068017E7A90703D5F117C0E9006111E71C
:100EC00006600FE745F040006060A80723464FF03A
:100ED000080216D41EE040F60E0125EA010060600B
:100EE00016E045F040006060A80723464FF00A0274
:100EF00007D40FE045F040006060A80708D52346FE
:100F000010226FF001000B99AFF300805AE007E068
:100F1000234610226FF001000B99FFF755F951E0BD
:100F20004FF000094F464B46632802D05B2807D09C
:100F300041E02079C00601D40120A06001273AE0F9
:100F400062690121019890475E2805D14FF001099F
:100F50006269494601989047216939B900210A46DA
:100F6000534643F82120491C0829FADBB0B3216914
:100F700069B9C11700EBD16253110AEB830122F06A
:100F80001F02821A01200B68904003430B606269C4
:100F90000121019890475D28E8D1B9F1000F09D0EF
:100FA0000020514651F82020D24341F82020401C17
:100FB0000828F7DB02AB224600976FF001000B997F
:100FC000AFF3008000280CDA401C08D1BBF1000F01
:100FD00005D04FF0FF300DB0BDE8F08FFFE7404681
:100FE000F9E7E90701D108F1010806444FF0000BC9
:100FF00078E60000CCCCCC0C7F2801D9002208E098
:10100000064A02EB5002C007127800D1120902F022
:101010000F020120904008407047000068670008F8
:1010200070B58C1810F8015B15F0070301D110F8AA
:10103000013B2A1106D110F8012B03E010F8016BD7
:1010400001F8016B5B1EF9D12B0705D40023521E5A
:101050000DD401F8013BFAE710F8013BCB1A921CC2
:1010600003E013F8015B01F8015B521EF9D5A142C0
:10107000D8D3002070BD000008B50121042000F085
:1010800073FB0220ADF8000028208DF803006946AC
:10109000014800F0BFF908BD0008014010B5022169
:1010A0000A4800F08BFA01280FD1052002F0C2FC9B
:1010B0000221064800F082FA012806D104A003F0BC
:1010C00089FC6421012002F0E5FB10BD000801400D
:1010D000244447543A312D392C31210070B516483B
:1010E000007800B970BD03F0B7FA14490968401AD6
:1010F00032281FD903F0B0FA1049086004F0F0FA62
:1011000006463046FFF7CEFB044600220C4BFFF7A5
:10111000F5FB0FD23046FFF7C5FB04460022094B12
:10112000FFF7D4FB06D86421012002F0B3FB06A030
:1011300003F050FC00BFD5E7B90000209800002064
:1011400000002A4000002E40244447543A33302DFA
:1011500033382C312100000010B50121094800F07E
:101160002DFA70B9052002F065FC0121054800F058
:1011700025FA30B904A003F02DFC6421012002F00F
:1011800089FB10BD00080140244447543A31302DFA
:1011900031392C312100000008B50121042000F074
:1011A000E3FA0120ADF8000048208DF803006946FD
:1011B000014800F02FF908BD0008014010B50221D8
:1011C000094800F0FBF970B9052002F033FC022158
:1011D000054800F0F3F930B904A003F0FBFB6421EB
:1011E000012002F057FB10BD000C0140244447547D
:1011F0003A31302D31392C312100000008B5012160
:10120000082000F0B1FA0220ADF8000048208DF867
:1012100003006946014800F0FDF808BD000C0140DC
:1012200010B52F480078002859D003F015FA2D4941
:101230000968401A322852D903F00EFA2949086089
:10124000002000F013FE284800F087FD26480088A3
:10125000052844DA6421012002F01CFB012000F083
:1012600005FEC82002F0E6FB1F4800F076FD1E4890
:1012700040881D49898888420CDD1B4840881A49EE
:10128000C988884206DD002005F0CAF817A003F0DF
:10129000A1FB24E0144880881349498888420CDD6A
:1012A000114880881049C988884206DD032005F06E
:1012B000B7F811A003F08EFB11E00B48C0880A4973
:1012C000898888420BDD0848C088074949888842D8
:1012D00005DD052005F0A4F80BA003F07BFB10BD95
:1012E000B90000209C000020EC000020244447545A
:1012F0003A312D392C312100244447543A31302DD4
:1013000031392C3121000000244447543A32302D29
:1013100032392C312100000000BFFEE710B54FF438
:10132000001000F037F8012814D1400500F018F83B
:101330000121094800F0AEFE01221146064800F0E6
:10134000D5FE0021054800F019F8002202210348CB
:1013500000F036F810BD0000000400406C000240B0
:1013600000F0805111B10349086001E00249486072
:1013700070470000040402400000024021B10268EE
:1013800042F00102026004E002684FF6FE731A4068
:101390000260704701460020002201F0805313B123
:1013A000054B1A6801E0054B1A6802EA01030BB10C
:1013B000012000E0002070470004024000000240CD
:1013C0001AB103680B43036002E003688B430360B8
:1013D000704710B50022026847F6F0739A430C6A12
:1013E0008B6823430C6923434C6923438C69234353
:1013F000CC6923434C6A23438C6A23431A4302601B
:10140000CB6843600B6883604B68C36010BD41606C
:10141000704770472DE9F041024600250026002064
:1014200000230024002791F803C00CF00F0591F869
:1014300003C00CF0100CBCF1000F03D091F802C0F7
:101440004CEA050591F800C0BCF1000F31D01468DA
:1014500000202BE04FF0010C0CFA00F3B1F800C0B3
:101460000CEA03069E4220D183004FF00F0C0CFAC9
:1014700003F7BC4305FA03FC4CEA040491F803C0EB
:10148000BCF1280F06D14FF0010C0CFA00FCC2F899
:1014900014C00AE091F803C0BCF1480F05D14FF029
:1014A000010C0CFA00FCC2F810C0401C0828D1D373
:1014B0001460B1F800C0BCF1FF0F34DD54680020A7
:1014C0002EE000F1080C4FF0010808FA0CF3B1F817
:1014D00000C00CEA03069E4221D183004FF00F0C9E
:1014E0000CFA03F7BC4305FA03FC4CEA040491F838
:1014F00003C0BCF1280F05D100F1080C08FA0CF864
:10150000C2F8148091F803C0BCF1480F07D100F174
:10151000080C4FF0010808FA0CF8C2F81080401CC3
:101520000828CED35460BDE8F0810000F0B50A462B
:10153000002300240021002500F00046B6F1004FF2
:1015400002D11D4EF16901E01B4E7168C0F30345E5
:1015500083B200F44016B6F5401F08D121F0706147
:10156000154E766826F07066134F7E6012E000F428
:101570008016B6F5801F06D1032606FA05F4A143AE
:1015800041F0706106E0460D360103FA06F6B143FC
:1015900041F0706122B1460D360103FA06F631437F
:1015A00000F00046B6F1004F02D1034EF16101E0B8
:1015B000014E7160F0BD00000000014002460020B5
:1015C00093680B400BB1012000E0002070470246F9
:1015D0000020D3680B400BB1012000E000207047D1
:1015E00041617047016170470AB1016100E04161EA
:1015F000704700BFFEE7000010B580210148FFF7EB
:10160000F1FF10BD0008014010B580210148FFF72F
:10161000E7FF10BD0008014010B520210148FFF789
:10162000E1FF10BD0008014010B520210148FFF77F
:10163000D7FF10BD0008014010B50E48006820F427
:1016400070000C4908600846006840F4000008601B
:1016500020210848FFF7B2FF04460648006820F43E
:101660007000044908600846006840F440100860B3
:10167000204610BD0008014000BFFEE7704700F0A3
:101680001F02012191404209920002F1E022C2F8BA
:101690000011704770B5002100230F22C47804B3F5
:1016A000154C246804F4E064C4F5E064210AC1F137
:1016B0000403CA40447804FA03F1847814402143B7
:1016C00009010E4C0678A155047804F01F05012489
:1016D000AC4005786D11AD0005F1E025C5F800417D
:1016E00009E0047804F01F050124AC40044D06789D
:1016F000761145F8264070BD0CED00E000E400E0F6
:1017000080E100E07047000029B1064A52690243B7
:10171000044B5A6104E0034A52698243014B5A6107
:10172000704700000010024029B1064AD269024306
:10173000044BDA6104E0034AD2698243014BDA6167
:10174000704700000010024029B1064A12690243A6
:10175000044B1A6104E0034A12698243014B1A6187
:10176000704700000010024029B1064A9269024306
:10177000044B9A6104E0034A92698243014B9A61E7
:10178000704700000010024029B1064AD2680243A7
:10179000044BDA6004E0034AD2688243014BDA600A
:1017A00070470000001002400F48006840F0010040
:1017B0000D490860084640680C4908400A494860DD
:1017C000084600680A49084007490860084600685A
:1017D00020F4802008600846406820F4FE0048603D
:1017E0004FF41F0088607047001002400000FFF8AF
:1017F000FFFFF6FE30B500210022002400232D4D0E
:101800006D6805F00C0121B1042905D0082923D108
:1018100005E0294D056022E0274D05601FE0254DBC
:101820006D6805F47012234D6D6805F4803402254F
:1018300005EB92421CB9214D554305600BE01D4D4F
:101840006D6805F400351DB11C4D5543056002E07F
:10185000194D5543056002E0174D056000BF00BFFC
:10186000144D6D6805F0F0010909154D6B5C0568B4
:10187000DD4045600F4D6D6805F4E061090A104DCB
:101880006B5C4568DD4085600A4D6D6805F460510C
:10189000C90A0B4D6B5C4568DD40C560054D6D6840
:1018A00005F44041890B074D6B5CC568B5FBF3F54A
:1018B000056130BD0010024000127A0000093D00B1
:1018C000F90000200901002010B501460022002384
:1018D00000204A11012A02D1094C236806E0022A9D
:1018E00002D1074C236A01E0054C636A01F01F0234
:1018F000012494401C400CB1012000E0002010BDE8
:10190000001002400248406800F00C0070470000E0
:101910000010024001460020034A506820F0F00009
:1019200008435060704700000010024011490968E8
:1019300021F480310F4A11601146096821F4802199
:101940001160B0F5803F03D0B0F5802F0ED106E0D6
:101950000849096841F48031064A116007E00549E9
:10196000096841F4A021034A116000E000BF00BFF4
:10197000704700000010024001460020034A5068F2
:1019800020F4E060084350607047000000100240FF
:1019900001460020034A506820F4605040EAC1002C
:1019A000506070470010024001490866704700000F
:1019B0000000424202460020044B586820F47C108C
:1019C00042EA01031843014B58607047001002407F
:1019D00001460020034A506820F00300084350608D
:1019E000704700000010024038B50020009000242D
:1019F000002500BF3120FFF767FF05460098401C17
:101A000000900098B0F5A06F01D0002DF2D03120E9
:101A1000FFF75AFF08B1012400E00024204638BD3A
:101A200021B1028842F04002028004E002884FF6B1
:101A3000BF731A40028070470246002013890B4092
:101A40000BB1012000E000207047014688897047F3
:101A50008181704710B50022028802F441520B8840
:101A60004C8823438C882343CC8823430C8923430D
:101A70004C8923438C892343CC8923431A43028016
:101A8000838B4FF2FF74234083830B8A038210BD44
:101A90007047000010B501210D20FFF765FE012100
:101AA0000148FFF743FD10BD0004300010B500F001
:101AB00001F810BD0CB5002001900090334800687B
:101AC00040F480303149086000BF3048006800F4BD
:101AD000003000900198401C0190009818B90198BE
:101AE000B0F5A06FF1D12948006800F4003010B1C2
:101AF0000120009001E0002000900098012843D1CF
:101B00002348006840F0100021490860084600683A
:101B100020F0030008600846006840F002000860FA
:101B20001A484068194948600846406848600846B5
:101B3000406840F4806048600846406820F47C10AB
:101B400048600846406840F4E8104860084600686D
:101B500040F08070086000BF0C48006800F0007022
:101B60000028F9D00948406820F003000749486080
:101B70000846406840F00200486000BF03484068E3
:101B800000F00C000828F9D10CBD00000010024044
:101B9000002002402DE9F04781460F4616464FEAE5
:101BA0001738C7F30B0ACAF58054A64200DC344646
:101BB00044E04FEA08314FF48052224804F0ACF878
:101BC000002508E00AEB05001E49085CFF2800D04C
:101BD00003E0681C85B2A542F4DB00BFA54216DA1B
:101BE000404603F0E9FF002507E019F8050005EB82
:101BF0000A01144A5054681C85B2A542F5DB4FEA2D
:101C000008314FF480520F4804F0E6F804E0224611
:101C10003946484604F0E0F8A64200D10FE008F14A
:101C200001084FF0000AA1442744301B86B2B6F5E4
:101C3000805F02DD4FF4805400E03446B9E700BF16
:101C4000BDE8F0875205002002480068401C0149A9
:101C500008607047A000002030B5144800684FF4B9
:101C60007A72B0FBF2F1B1F1807F00D31DE021F078
:101C70007F40401E4FF0E022506150170F22002895
:101C800007DA13071D0E0A4B00F00F04241F1D5521
:101C900003E013071C0E074B1C5400BF00204FF03D
:101CA000E02290610720106100BF30BD10010020CC
:101CB00018ED00E000E400E010B51348006840F0C3
:101CC00001001149086008464068104908400E4963
:101CD0004860084600680E4908400B4908600846FD
:101CE000006820F4802008600846406820F4FE0068
:101CF00048604FF41F008860FFF7D8FE4FF0006087
:101D00000449086010BD0000001002400000FFF808
:101D1000FFFFF6FE08ED00E008B50120009001226B
:101D20006946002000F0DFF8032000900122694698
:101D3000002000F0D8F808BD38B504460020009017
:101D400002226946204600F0ABF89DF800009DF89D
:101D5000011040EA0125284638BD38B50446012067
:101D6000009001226946132000F09AF89DF80000C7
:101D700000F0010088B11420FFF7DEFF208016205C
:101D8000FFF7DAFF60801820FFF7D6FFA0801A2047
:101D9000FFF7D2FFE080012038BD0020FCE72DE9ED
:101DA000F04107460D4616469846002401F0B7FF5D
:101DB000012101EB4701C8B201F0EDFF01F0CEFFB8
:101DC00000BF0DE0701EA04204D1002001F086FF8C
:101DD000285503E0012001F081FF2855601CC4B2A2
:101DE000B442EFDBB8F1010F01D101F0A8FFBDE86B
:101DF000F0812DE9F04105460E461746984600242D
:101E000001F08DFF002141EA4501C8B201F0C3FF96
:101E100001F0A4FF00BF06E0305D01F0BCFF01F05F
:101E20009DFF601CC4B2BC42F6DBB8F1010F01D1CA
:101E300001F085FFBDE8F08108B50020009003F0B7
:101E40007FFE01226946122000F02AF89DF800006A
:101E5000442809D1EB2000F03FF8002000F035F8CD
:101E6000FFF75AFF012008BD0020FCE738B5044603
:101E7000002000900122694600F012F82CB19DF874
:101E8000000040F01000009004E09DF8000020F0F9
:101E90001000009001226946002000F024F838BDAF
:101EA00037B50C4615469DF8000040F080000090C4
:101EB0000023012269462920FFF79BFF01232A46C0
:101EC00021462920FFF76BFF3EBD01B5012269467F
:101ED0000F2000F008F808BD01B501226946104640
:101EE00000F001F808BDFEB506460F461546002075
:101EF000009001900290002446F080008DF80000D0
:101F0000012405E0601E385C0DF80400601CC4B2BA
:101F1000AC42F7DD681CC2B2012369462920FFF7F5
:101F200068FFFEBD10B50121880700F0CEF800283B
:101F300053D00121880700F0B0F82848007808281D
:101F400002D100202549087024480078032803D0D6
:101F50002248007804280DD12049097801EB41017D
:101F60001F4A02EB81014868FEF769FC40F6B83170
:101F70000C1A0AE01949097801EB4101184A02EBF1
:101F800081014868FEF75BFC04461648007860B99A
:101F90004FF080418C8501211048007803F0CAFC85
:101FA0000E48007803F0FEFB0FE040F6C410001B63
:101FB0004FF08041888500210848007803F0BAFC82
:101FC00006480078401C054908700648007808B9A2
:101FD000012000E000200349087010BDA50000208A
:101FE0005C150020A40000207FB505460C460121A9
:101FF0000846FFF799FBADF80850ADF80440002003
:10200000ADF80A00ADF8060001A94FF0804000F0DD
:10201000CFF800214FF0804000F030F80122114647
:10202000900700F063F81C208DF8000000208DF868
:10203000010003208DF8020001208DF8030068469E
:10204000FFF728FB0121880700F02AF87FBD000078
:1020500010B50121084800F038F860B101210648A8
:1020600000F01BF800220121034800F03FF8002196
:10207000014800F015F810BD0004004021B10288AD
:1020800042F08002028004E002884FF67F731A401B
:1020900002807047CA4302827047CA430282704777
:1020A00021B1028842F00102028004E002884FF66A
:1020B000FE731A40028070471AB183890B438381F3
:1020C00002E083898B438381704730B5024600204C
:1020D00000230024158A05EA0103958905EA010415
:1020E00013B10CB1012000E0002030BD1AB183898A
:1020F0000B43838102E083898B4383817047000017
:1021000070B5002400220023058C4FF6FE76354082
:102110000584028C8388048B4FF68F752C40B51E86
:102120002C400D882C43751E2A400D892A434D886A
:102130002A43144DA8420BD0134DA84208D0134D8A
:10214000A84205D0124DA84202D0124DA84213D188
:102150004FF6F7752A404D892A434FF6FB752A4002
:102160008D882A434FF6FF652B404FF6FF552B40D5
:102170008D892B43CD892B4383800483CD8885862D
:10218000028470BD002C0140003401400040014039
:1021900000440140004801400A460021018B4FF6EF
:1021A000F773194011430183704781847047000021
:1021B000002202881D4B98420ED01D4B98420BD036
:1021C000B0F1804F08D01B4B984205D01A4B984273
:1021D00002D01A4B984204D14FF68F731A404B88A5
:1021E0001A43174B984207D0164B984204D04FF62B
:1021F000FF431A40CB881A4302808B8883850B8863
:1022000003850A4B98420BD0094B984208D00E4BDD
:10221000984205D00D4B984202D00D4B984201D107
:102220000B7A03860123838270470000002C014053
:10223000003401400004004000080040000C004051
:1022400000100040001400400040014000440140E4
:102250000048014010B540F22551424800F0A0F975
:1022600001287CD140F225513E4800F01FF93D483D
:1022700000F034FAC4B23C48008800B110BD3C2CD8
:1022800006D10420394908700020394908801CE033
:1022900036480078C8B9242C03D10120334908708E
:1022A00010E0232C03D10220304908700AE07B2C77
:1022B00003D103202D49087004E03C2C02D10420F6
:1022C0002A49087000202A49088029480188008886
:1022D000401C274A1080274844542448007804288A
:1022E00009D13E2C07D100202249128888540120B0
:1022F0001D4908802BE01D48007801280AD1212CB7
:1023000008D100201B491A4A128888540120164916
:1023100008801CE01548007802280AD1212C08D139
:1023200000211448124A1288815401200E49088065
:102330000DE00E480078032809D17D2C07D100203C
:102340000C490B4A12888854012007490880084824
:102350000088B0F5806F02DB00200549088000BFCF
:102360008CE7000000380140A6000020A8000020F3
:10237000AA0000202C01002010B540F2255145484C
:1023800000F00EF901287DD140F22551414800F0BE
:102390008DF8404800F0A2F9C4B221463E4800F052
:1023A000A2F93E48008800B110BD3C2C06D10420A3
:1023B0003B49087000203B4908801CE03848007801
:1023C000C8B9242C03D101203549087010E0232C12
:1023D00003D10220324908700AE07B2C03D103208C
:1023E0002F49087004E03C2C02D104202C490870CD
:1023F00000202C4908802B4801880088401C294A6D
:1024000010802948445426480078042809D13E2CDD
:1024100007D1002024491288885401201F490880D0
:102420002BE01F48007801280AD1212C08D1002078
:102430001D491C4A128888540120184908801CE054
:102440001748007802280AD1212C08D1002116480B
:10245000144A128881540120104908800DE0104868
:102460000078032809D17D2C07D100200E490D4AA0
:10247000128888540120094908800A480088B0F56C
:10248000806F00E003E002DB00200649088000BF07
:102490008AE700000048004000380140A600002004
:1024A000A8000020AC0000202C01002010B5002264
:1024B000002340F66A14A14200D100BF0A12012491
:1024C0009440A3B2DC43048010BD10B50246002046
:1024D000108A4FF2FF0318400B884C8823438C88E6
:1024E0002343CC8823431843108210BD21B1828935
:1024F00042F40052828104E082894DF6FF731A4053
:102500008281704710B504462048844209D10121D8
:102510008803FFF739F900214FF48040FFF734F9C1
:1025200032E01B48844209D101214804FFF70CF92D
:1025300000214FF40030FFF707F925E015488442E9
:1025400009D101218804FFF7FFF800214FF4802012
:10255000FFF7FAF818E01048844209D10121C804B5
:10256000FFF7F2F800214FF40020FFF7EDF80BE041
:102570000A48844208D101210805FFF7E5F8002147
:102580004FF48010FFF7E0F810BD00000038014064
:102590000044004000480040004C00400050004013
:1025A00002460020B1F5007F00D100BF13880B4028
:1025B0000BB1012000E000207047F0B50346002475
:1025C00000260025002040F66A17B94200D100BF5E
:1025D0001846C1F3421401F01F06012707FA06F559
:1025E000012C01D10C3004E0022C01D1103000E0AC
:1025F00014301AB107682F43076002E00768AF4341
:102600000760F0BD2DE9F04786B005460E46002470
:10261000A24600BFA1460027B08900B100BF2F46E7
:102620002C8A4CF6FF700440F08804432C82AC895D
:102630004EF6F3100440B08831890843718908438D
:102640000443AC81AC8A4FF6FF400440B089044398
:10265000AC8201A8FFF7CEF81F48874202D1DDF80F
:1026600010A001E0DDF80CA0A88900F4004040B102
:102670000AEBCA0000EB0A1031684900B0FBF1F820
:1026800007E00AEBCA0000EB0A1031688900B0FBD2
:10269000F1F86420B8FBF0F004012009642101FB8B
:1026A0001089A88900F4004040B1322000EBC90035
:1026B000B0FBF1F000F00700044308E0322000EB2B
:1026C00009106421B0FBF1F000F00F0004432C81ED
:1026D00006B0BDE8F0870000003801400146888858
:1026E000C0F308007047C1F308028280704700BF42
:1026F000FEE700000FB4054B10B503A9044A029889
:1027000000F066FB10BC5DF814FB0000153C0008EF
:10271000240100200FB4084B10B504A902AA0398A5
:1027200000F056FB044602A9002000F0F2FC20460F
:1027300010BC5DF814FB000013310008490050EA9A
:10274000C12018BF04204A0D18BF40F0010040F21C
:10275000FF72B2EB515F08BF40F00200012808BFD2
:10276000052070472DE9F74F144694B00021C4E9C5
:1027700002111599079121F00045C9498D4206DCE7
:102780001599C4E9000117B00020BDE8F08FC549D4
:10279000DFF814A3A9423CDD0799C44E0029C44FB9
:1027A000C44A1599534619DDFDF71DFF554506D05E
:1027B000C14AC24BFDF717FFC4E900010AE04FF020
:1027C000D352BE4BFDF70FFF32463B46FDF70BFFE2
:1027D000C4E9000117B00120BDE8F08FFDF762FEEB
:1027E000554506D0B44AB54BFDF75CFEC4E900017F
:1027F0000AE04FF0D352B14BFDF754FE32463B4650
:10280000FDF750FEC4E9000117B04FF0FF30BDE8FE
:10281000F08FAB49A942159978DB21F0004183463E
:102820008846A84AA84BFDF7E4FE0022A74BFDF717
:1028300039FEFEF718F80990FDF7CAFF06460F4665
:102840009C4A5346FDF7D5FE43465A46FDF7CEFE59
:1028500080468A46984A994B30463946FDF7C9FE6C
:102860002A0D01250B9242465346FDF7BFFE032D6C
:10287000C4E9000139D00B98C1F30A51401A05EBA5
:1028800045111139814230DA9148C346784400EB52
:102890000510CDF80CA00C90D0E900233046394645
:1028A000FDF7A7FE02460B46049106905846039991
:1028B000FDF799FE80468A4602460B465846039924
:1028C000FDF791FE049B069AFDF78DFE83460C985A
:1028D00003913946D0E902233046FDF78AFE5A4675
:1028E000039BFDF780FE6D1CBDE707980028A2BF83
:1028F000099817B0BDE8F08F616881F00041616010
:10290000099817B04042BDE8F08FFFE7844615985C
:10291000C1F31301C0F30A50A0F2F5304FEA60187A
:1029200000F01F06C6F120001390002006900790CB
:1029300041F4801E05206D4676B1664A08EB000121
:102940007A4452F8213002EB8101B3404A6813996E
:1029500022FA01F1194305E05F4908EB00027944CE
:1029600051F82210A1FB0E27A1FB0C131A449A4226
:1029700034BF0123002303EB070A05EB8003D3E9EF
:1029800001B70F448F4234BF0121002193448B448F
:1029900011B1934502D903E0934501D2012100E032
:1029A0000021C3E901B7514445F82010011EA0F1F0
:1029B0000100C1DC0298059F00F10050800F1290C9
:1029C0000298DDE903568000FDF702FF83462846A2
:1029D0000D91FDF70EFF6FF01D02FEF7F5F8CDE942
:1029E0000E013046FDF705FF6FF03D02FEF7ECF8F3
:1029F00080468A463846FDF7FCFE6FF05D02FEF722
:102A0000E3F80746424653461191FDF74BFDDDE9D9
:102A10000E23FDF747FD5A460D9BFDF743FD0025AC
:102A20000E465A4628460D9BFDF7DDFDDDE90E23D7
:102A3000FDF7D9FD42465346FDF7D5FD3A46119BB9
:102A4000FDF7D4FDDFF898A0244A5346FDF7D1FDE9
:102A500007468846234A244B31462846FDF7C9FDE0
:102A60003A464346FDF71EFD074688464FF0A8420A
:102A7000534631462846FDF7BCFD3A464346FDF72E
:102A800011FD159A12F0004F04D0129A81F0004106
:102A900052421292C4E90001129817B0BDE8F08FBB
:102AA000FB21E93F7CD90240FB21F93F7370032EE3
:102AB0008A19A33B000040543163621A61B4D03DCF
:102AC000FB21394183C8C96D305FE43F0000E03F1E
:102AD000E83D0000643D0000463D0000182D4454D0
:102AE000FB21F93D3326A611460B113C2DE9FF4D84
:102AF00021F0004807460C46B8F1795F08DAFDF787
:102B0000B2FE002801BF0020324904B0BDE8F08DBC
:102B10003A46234610461946FDF76BFD0546024628
:102B20002D480E460B460621784400F05DF82A46F3
:102B30003346FDF75EFDDDE9022382468B463846CB
:102B40002146FDF756FD04460F4652465B46284691
:102B50003146FDF74EFD22463B46FDF744FD074654
:102B60008A464FF0FF3228463146FEF72DF81B4AC1
:102B700090450ADA3A465346FDF735FD04B0002287
:102B8000BDE8F04D134BFDF731BD154A4245A8BFD6
:102B9000A8F500154FF00004B8BF124D22462B4691
:102BA000FDF721FD0646884622462B4600200949AE
:102BB000FDF719FD04460D463A4653463046414658
:102BC000FDF711FD04B022462B46BDE8F04DFDF7A0
:102BD0000DBD00000000F03F1C3B00003333D33F2D
:102BE0000000E93F0000D23F2DE9F0414F1E00EB0D
:102BF000C7010446D1E9000115461E4637F006021A
:102C00000DD02A463346FDF7F4FC7F1E04EBC703C4
:102C1000D3E90023FDF746FC37F00602F1D1022F7D
:102C200025D0042F13D0062F18BFBDE8F0812A4607
:102C30003346FDF7DEFCD4E90A23FDF733FC2A46D0
:102C40003346FDF7D6FCD4E90823FDF72BFC2A46D2
:102C50003346FDF7CEFCD4E90623FDF723FC2A46D4
:102C60003346FDF7C6FCD4E90423FDF71BFC2A46D6
:102C70003346FDF7BEFCD4E90223FDF713FC2A46D8
:102C80003346FDF7B6FCD4E90023BDE8F041FDF77B
:102C900009BC00002DE9FF4D054621F0004084B03D
:102CA0000C46B0F1795F0BDA2846FFF747FD0428A0
:102CB00008BF00F06FF8284608B02146BDE8F08D47
:102CC0002A460B461046FDF794FC06460F462A4658
:102CD0002346FDF78EFC804626488A4632463B4610
:102CE00005217844FFF780FF83461098029160B376
:102CF000214A224B40465146FDF77BFCCDE90001BD
:102D00005A4640465146029BFDF773FC8246884670
:102D1000DDE906014FF0FF32FDF756FF524643460C
:102D2000FDF761FC32463B46FDF763FCDDE9062317
:102D3000FDF759FCDDE90023FDF755FC08B02A46F4
:102D40002346BDE8F04DFDF751BC0B465A463046D0
:102D50003946FDF74EFC084A084BFDF7A3FB4246F7
:102D60005346FDF746FC08B02A462346BDE8F04D21
:102D7000FDF798BB5A3A0000495555555555C5BF02
:102D80000122FDF721BF0022134610461146FDF730
:102D9000A2BC0000024A00201107FDF715BF000089
:102DA00001FDFFFF02E008C8121F08C1002AFAD186
:102DB00070477047002001E001C1121F002AFBD1BB
:102DC000704700000149086070470000280100209A
:102DD0002DE9FF4F8BB088460546002606E02528E2
:102DE0000BD0DDE90D1290476D1C761C2878002869
:102DF000F5D10FB03046BDE8F08F0024A146A246C1
:102E00000122AE4900E0044315F8013F203B02FADD
:102E100003F00842F7D128782A2810D06FF02F024B
:102E20002878A0F13001092915D809EB890102EBB6
:102E3000410144F0020400EB01096D1CF0E758F871
:102E4000041B5FEA010903D544F40054C9F10009E9
:102E500044F002046D1C28782E2817D115F8010FB4
:102E600044F004042A280ED06FF02F022878A0F135
:102E7000300109290AD80AEB8A0102EB410100EB73
:102E8000010A6D1CF2E758F804AB6D1C28786C2819
:102E90000FD006DC4C2817D068280DD06A2814D132
:102EA00004E0742810D07A280FD10DE044F4001407
:102EB0000AE044F4801401E044F44014697881424B
:102EC00002D104F580146D1C6D1C2878692865D02A
:102ED00006DC00288DD0632827D0642806D15DE069
:102EE0006E2808D073282AD0752877D0DDE90D1216
:102EF0009047761CE0E0C4F30250022809D0032872
:102F00000DD0D8F8001004280DD00E6008F1040888
:102F1000D2E0D8F80010F217C1E90062F6E7D8F85D
:102F200000100E80F2E70E70F0E718F8041B8DF821
:102F3000001000208DF80100EB46012003E058F856
:102F400004BB4FF0FF3061074FF0000701D40AE0E7
:102F50007F1C57450DDA8742FADB1BF80710002962
:102F6000F6D106E07F1C8742FCDB1BF80710002926
:102F7000F8D1DDE90D23A9EB07008146214600F0D9
:102F8000B1F83044C61904E0DDE90D121BF8010B5D
:102F900090477F1EF8D22146484688E058F8040B37
:102FA000C4F302514FF00A0B032900D100B20429E7
:102FB00000D140B2002802DA40422D2102E0210572
:102FC00005D52B218DF82410012104E006E0E1074E
:102FD00010D02021F6E708AF089113E058F8040B51
:102FE000C4F302514FF00A0B032900D180B2042927
:102FF00000D1C0B20021EEE75946FDF7C7FC3031E1
:1030000007F8011D0028F7D1ADEB070000F1200BF8
:10301000600702D524F4803401E04FF0010ADA455C
:1030200002DDAAEB0B0000E00020824600EB0B0162
:1030300008980144A9EB01000A90E00306D4DDE9F9
:103040000D2321460A9800F04DF806444FF0000980
:1030500008E009A911F80900DDE90D12904709F10E
:103060000109761C08998945F3DBE0030CD5DDE9FD
:103070000D2321460A9800F035F8064404E0DDE906
:103080000D1230209047761CBAF10001AAF1010A16
:10309000F5DC05E0DDE90D1217F8010B9047761C11
:1030A000BBF10001ABF1010BF4DC0A982146DDE92C
:1030B0000D2300F005F806446D1C97E60928010071
:1030C0002DE9F041044600251E461746880404D425
:1030D00005E039462020B0476D1C641EF9D528460E
:1030E000BDE8F0812DE9F041044600251E469046DA
:1030F000C80301D5302700E02027880404D505E067
:1031000041463846B0476D1C641EF9D52846BDE8D7
:10311000F0810A68531C0B601070704710B50446AC
:1031200000212046FDF728FC01D2204610BD84F086
:103130000040FBE72DE9F04D0546DFF8388221F02D
:1031400000408D4F82B00C46404520DBA0EB0801CB
:1031500029430BD08949884201DC10D17DB102B0EE
:1031600028462146BDE8F04DFFF70ABE002CC7BF38
:10317000002001468248394602B0BDE8F08D0120AA
:10318000FFF720FE02B0BDE8F04DFFF7FCBD7D4922
:10319000884244DA7C498142A1BF79487B4902B028
:1031A000BDE8F08D2A46234610461946FDF721FA60
:1031B0008346024676480E460B4606217844FFF7C2
:1031C00013FD5A463346FDF714FA074671488A46FE
:1031D0005A46334604217844FFF706FD5A463346E3
:1031E000FDF707FA00224346FDF75CF902460B465D
:1031F00038465146FDF76FFA2A462346FDF7F9F99E
:10320000654A664BFDF7F2F92A462346FDF7EEF9CB
:1032100002B05B4ABDE8F04D5C4BFDF7E7B9002C0E
:103220004FF000024BDA4646434628462146FDF75A
:1032300039F94FF0FF32FDF7C7FC04460246584803
:103240000D460B4606217844FFF7CEFC22462B465E
:10325000FDF7CFF9804653488A4622462B46042183
:103260007844FFF7C1FC22462B46FDF7C2F9002245
:103270003346FDF717F906468B462046294602F0ED
:1032800041FE04460D4632465B4640465146FDF738
:1032900022FA22462B46FDF7ACF93F4A3F4BFDF799
:1032A000A2F922462B46FDF7FDF80122FDF78CFC22
:1032B00002B03B46BDE8F04D314AFDF797B92D4BC2
:1032C00028462146FDF792F94FF0FF32FDF77CFCCE
:1032D00005460E4602F016FE00270C4680463A468A
:1032E0000B46FDF7DFF882468B463A4623461046EA
:1032F0001946FDF77EF92A463346FDF777F952461F
:103300005B46FDF7E8F9824627488B462A46334656
:1033100006217844FFF768FC2A463346FDF769F931
:10332000CDE9000121482A46334604217844FFF7BD
:103330005BFC2A463346FDF75CF900220D4BFDF796
:10334000B1F802460B46DDE90001FDF7C4F942463B
:103350002346FDF74EF952465B46FDF7A3F83A4681
:103360002346FDF79FF802B00122BDE8F04DFDF7BE
:103370002BBC00000000F03FFB2109400000F07F63
:10338000182D44540000E03F0000603CFB21F93F51
:10339000A0330000B6330000075C143326A6913C2E
:1033A000163300002C3300004A3200006032000067
:1033B00010B501F079F800F057FA4FF400510448C5
:1033C000FEF710F920210248FEF70AF910BD0000AF
:1033D000000C014010B501F03FF90D490968401A91
:1033E000B0F57A7F00D210BD01F036F908490860C7
:1033F0004FF400510748FEF7EAF8C0F10100C4B2EB
:1034000022464FF400510348FEF7EEF800BFEAE70A
:1034100000000020000C014010B501F0AFFF10BD0E
:1034200010B501F019F913490968401A322800D281
:1034300010BD01F011F90F49086002F01DF80E48A7
:1034400000780E49C978884205D10B4840780B496D
:10345000097988420BD009484178C01C01F008FE68
:103460000648C0780449087004480079487000BFD5
:10347000DEE70000880000208400002052150020B4
:1034800010B55A2002F014FF032002F0C9FFFDF727
:10349000F3FDFDF781FEFDF7B1FE02F097FE472137
:1034A00047F2305002F07AFDFEF7C6FC18B104A0D6
:1034B000FFF720F902E008A0FFF71CF910BD00009B
:1034C00054435333343732355F496E697420737512
:1034D00063636565640D0A005443533334373235F2
:1034E0005F496E6974206661696C0D0A0000000016
:1034F00010B51C48007800B910BD1B48007808B30F
:1035000019480078012802D1FDF78AFE1AE0164812
:103510000078022802D1FDF7E1FD13E0124800789F
:10352000042802D1FDF74AFE0CE00F480078052878
:1035300002D1FDF711FE05E00B480078062801D105
:10354000FDF7ACFD0948007807490978884206D0A4
:10355000054800780549087001200249087000BF3D
:10356000CAE70000B9000020B80000209400002045
:1035700010B5002419E020210D48FEF733F84FF470
:1035800000510B48FEF72CF8642000F053FA20217C
:103590000748FEF725F84FF400510548FEF722F8DA
:1035A000642000F047FA601CC4B2032CE3DB10BDBA
:1035B000000C014010B54FF4E13002F007FD4FF46C
:1035C000E13002F07DFD02A0FFF794F810BD00008D
:1035D00075617274315F696E6974207375636365B8
:1035E00065640D0A0000000010B51448008818B387
:1035F00013480078012803D1124801F0EBF916E0D6
:103600000F480078022803D10E4801F079F80EE047
:103610000B480078032803D10A4801F071F806E04E
:1036200007480078042802D1064801F0B5FF0020C1
:10363000034908700149088010BD0000A600002061
:10364000A80000202C0100202DE9F84F04460D466B
:1036500021F0004000917349814211DC7249884297
:1036600001DC06D12CB120462946BDE8F84FFFF712
:1036700087BB6E48002DCCBF6D496E49BDE8F88F01
:103680006D49814211DD6D498142D8BF4FF0FF364F
:103690006DDD20462946FFF751F8042808BFFFF7E3
:1036A00079FB20462946BDE8F88F6549654F25F02E
:1036B0000045814233DD6449814219DD00263246EE
:1036C0004FF0804320462946FCF7ECFE80468A46B0
:1036D000012220462946FDF777FA00223B46FCF7F7
:1036E00082FF42465346FCF7F6FF04460D463EE095
:1036F00001260022BA463B4620462946FCF7D2FE68
:1037000080460F460022534620462946FCF76BFFB1
:1037100042463B46FCF7DFFF04460D4627E04B4997
:1037200081421BDDDFF828A10226002253462046F5
:103730002946FCF75EFF00223B46FCF7B3FE8046BD
:103740000F460022534620462946FCF74CFF4246CE
:103750003B46FCF7C0FF04460D4608E00326224620
:103760002B4600203B49FCF7B6FF04460D46224697
:103770002B4610461946FCF73CFF8B468246024614
:103780000B46FCF736FF07460246334888460B4691
:1037900006217844FFF728FA52465B46FCF729FFDA
:1037A00082462E488B463A46434605217844FFF729
:1037B0001BFA3A464346FCF71CFF02460B46002E16
:1037C000504659460CDAFCF76DFE22462B46FCF7B4
:1037D00010FF01B022462B46BDE8F04FFCF706BFB4
:1037E000FCF760FE22462B46FCF703FF1C4A7A4496
:1037F00002EBC603D3E90023FCF7F5FE22462B4675
:10380000FCF7F1FE174A7A4402EBC603D3E9002322
:10381000FCF7ECFE009A002AB8BF81F00041BDE839
:10382000F88F0000000010440000F07F182D445471
:10383000FB21F93FFB21F9BF0000DC3F0000203EE7
:103840000000F33F0000F03F0000E63F008003402F
:103850000000F83F0000F0BF822E0000402E000064
:10386000DE2D0000A62D000008B501210820FDF77F
:103870007BFF2020ADF8000010208DF8030003200E
:103880008DF8020069460248FDF7C4FD08BD00003E
:10389000000C014070B505460C4600260EE02021C4
:1038A0000848FDF79FFEA0B200F0C4F820210548AB
:1038B000FDF796FEA0B200F0BDF8761CAE42EEDB3E
:1038C00070BD0000000C01402DE9FC4104460D468E
:1038D00016461F46B4F57A7F02DB40F2E73403E078
:1038E00014F57A7F00DC1A4CB5F57A7F02DB40F2E2
:1038F000E73503E015F57A7F00DC154DB6F57A7FE4
:1039000002DB40F2E73603E016F57A7F00DC104E6A
:10391000B7F57A7F02DB40F2E73703E017F57A7FED
:1039200000DC0B4F40F2DC50C11B06F2DC50CDE94D
:10393000000140F2DC50431B04F2DC5205A11548A3
:10394000FEF7E8FE134802F0E9FDBDE8FC81000047
:1039500019FCFFFF7B23303036502530346454305F
:1039600030303021233030375025303464543030FB
:1039700030302123303038502530346454303030EA
:1039800030212330303950253034645430303030D9
:10399000217D0000BC15002000B5244B21F0004221
:1039A00087B09A42DCBF0022134629DD204B9A42A1
:1039B00008D140B94FF00100FFF704FAFFF7E3F92F
:1039C00007B000BD03DBFFF7DBF907B000BD02AABB
:1039D000FEF7C8FE10F0030104BF0DF1080C9CE8CF
:1039E0000F000DD0012001290ED0022914D00DF1B5
:1039F000080C00909CE80F00FFF74CF907B000BDE1
:103A0000FFF774F807B000BD0DF1080C00909CE8BA
:103A10000F00FFF73FF905E00DF1080C9CE80F00DF
:103A2000FFF764F807B081F0004100BDFB21E93FDA
:103A30000000F07F70B5044600F00EFE054608E079
:103A400000F00AFEA84204D2C5F1FF30201A84B269
:103A5000002500F001FE401BA042F1D370BD002103
:103A600006E00A2100BF0A1EA1F1010399B2FAD1B2
:103A7000021EA0F1010398B2F3D1704710B50446BD
:103A8000012002F019F90A20FFF7D4FF4FF48061FA
:103A90000A48FCF762FB21024FF48072074802F0EB
:103AA0003BF9064800F0C4F805490860034800F0F7
:103AB00027FE002002F000F910BD00002C010020BC
:103AC000D80000202DE9FF47044689469246082C7D
:103AD00001DBBDE8FF87B9F1000F13D1002004EB33
:103AE0004401484A02EB8101886004EB440102EB87
:103AF00081014868FCF7A3FE04EB4401414A22F827
:103B00002100E6E740F6BA10814501DD814604E078
:103B1000B9F5FF7F01DA4FF4FF7942F21070824568
:103B200000DD82464846FCF745FE054604EB4400AE
:103B3000344A02EB800041682846FCF713FF0BD1A2
:103B40004846FCF745FE07462F4A304BFCF7AAFCD7
:103B50000546FCF788FE8146BAF1140F14DA04EB2F
:103B60004401284A22F821904846FCF723FE04EB42
:103B70004401244A02EB81014860002004EB440127
:103B800002EB810188603BE004EB44011D4A22F80E
:103B9000219004EB440102EB8101A1F802A004EBA7
:103BA000440102EB81014888FCF723FE0546002210
:103BB000174BFCF790FDCDE9020104EB4401114ADB
:103BC00032F82100FCF7FFFD064604EB44000D4AE5
:103BD00002EB800041683046FCF7EEFB0546FCF73F
:103BE00061FECDE90001DDE90223FCF774FD074623
:103BF000FCF79CFE04EB4401024A02EB8101886061
:103C000000BF66E75C150020D200DE02098A7F3F14
:103C10000000344000BF054A128802F04002002A2A
:103C2000F9D0C2B2014B1B1D1A8070470038014009
:103C300070B5024600210020002323E0545C542C80
:103C40001ED14C1C145D303C4FF47A756C438D1CB6
:103C5000555D303D05EBC50606EB051504EB850506
:103C6000CC1C145D303C04EB840405EB44050C1DB6
:103C7000145D303C2B19834200DD1846091D01E01C
:103C8000491C00BF545C002CD8D170BD10B5FDF7A5
:103C9000CBFC00F00BF8FDF7AFFC00F007F8FDF7E8
:103CA000B3FC00F003F8FDF7B7FC10BD10B503241A
:103CB00001E000F04EF8601EC0B2041EF9D110BD44
:103CC00010B5FDF7A9FCFFF7F1FFFDF795FCFFF735
:103CD000EDFFFDF799FCFFF7E9FF10BD70B5054654
:103CE0000026002400BF10E06006040EFDF784FCEF
:103CF000FFF7DCFFFDF7A0FC08B1601CC4B2FDF7C4
:103D000083FCFFF7D3FF701CC6B2082EECDB15B99D
:103D1000FFF7D6FF01E0FFF7B9FF204670BD10B5F1
:103D2000FDF77AFCFDF768FCFFF7C0FFFDF77CFCB0
:103D3000FFF7BCFFFDF768FCFFF7B8FF10BD10B53B
:103D4000FDF772FCFDF758FCFFF7B0FFFDF764FCD0
:103D500010BD10B50520FFF782FE10BD10B5002480
:103D6000FDF75AFCFFF7A2FFFDF746FC09E0601CD7
:103D700084B2FFF79BFF642C03DDFFF7E0FF012017
:103D800010BDFDF759FC0028F1D1FDF73DFCFFF710
:103D90008DFF0020F4E770B50446002500BF16E053
:103DA00004F08000002802DDFDF736FC01E0FDF79D
:103DB0003BFC6006040EFFF779FFFDF71DFCFFF7E3
:103DC00075FFFDF721FCFFF771FF681CC5B2082DD8
:103DD000E6DBFDF721FC70BD02680B6803600A603A
:103DE000704700000FB59DB0FE491D98FCF7EAFA38
:103DF0001D90FC491E98FCF7E5FA1E90F9491F98A2
:103E0000FCF7E0FA1F90229800681790229840680B
:103E100016902298806815902298C068149000210E
:103E20001D98FCF79FFD02D1002018901BE0DDE9F2
:103E30001D01FCF7F9FA0790FCF734FDCDE9080104
:103E4000FFF702FC0022E84BCDE90A01FCF7D1FBA9
:103E5000E64AE74BCDE90C01FCF73DFCCDE90E014C
:103E6000FCF764FD18901E990846FCF7ABFA0A901F
:103E70001D990846FCF7A6FA09900A99FCF74AFA38
:103E80000B90FCF70FFDCDE90C0102F03BF8CDE9FA
:103E90000E01FCF74BFD1E902098FCF703FDD34A62
:103EA000D34BCDE90001FCF7A4FB0022CE4BCDE9BA
:103EB0000201FCF710FCCDE90401FFF76DFDCDE92F
:103EC00008011498FCF7EEFCCDE90601DDE90823B2
:103ED000FCF78FFBCDE90C011E98FCF7E3FCCDE964
:103EE0000A01DDE90C23FCF77EFBCDE90E01FCF7AE
:103EF0001DFD1E902098FCF7D5FCBC4ABC4BCDE9BB
:103F00000001FCF776FB0022B74BCDE90201FCF77C
:103F1000E2FBCDE9040101F0C3FDCDE908011498ED
:103F2000FCF7C0FCCDE90601DDE90823FCF761FBE5
:103F3000CDE90C0117991F98FCF73EFA0990FCF7A0
:103F4000B1FCCDE90A01DDE90C23FCF74CFBCDE91E
:103F50000E01FCF7EBFC1F90179880F000400F90CB
:103F60001F99FCF709FD02D2012021B000BDDDE957
:103F70001510FCF7CFF90B90FCF794FCCDE90E017E
:103F80001F990846FCF71EFA08901E990846FCF790
:103F900019FA07900899FCF7BDF90990FCF782FC23
:103FA000CDE90A0101F0AEFFCDE90C01DDE90E23F8
:103FB000FCF7A4FC01D20220D7E71F990846FCF7C2
:103FC00001FA04901E990846FCF7FCF90390049945
:103FD000FCF7A0F90590FCF765FCCDE9060101F0BE
:103FE00091FFCDE90A011E98FCF75CFCCDE90801C0
:103FF000DDE90A23FCF76FFBCDE90C01FFF79AF826
:10400000CDE90E01FCF792FC11901F990846FCF7D0
:10401000D9F902901E990846FCF7D4F9019002994B
:10402000FCF778F90390FCF73DFCCDE9040101F0C1
:1040300069FFCDE908014FF080401699FCF7C2F9FD
:104040000590FCF72FFCCDE90601DDE90823FCF71C
:10405000D0FACDE90C0115990846FCF7B3F90890A0
:1040600016990846FCF7AEF906901F990846FCF72A
:10407000A9F904901E990846FCF7A4F90390049945
:10408000FCF748F905900699FCF744F90790089960
:10409000FCF792F90990FCF705FCCDE90A01DDE98E
:1040A0000C23FCF718FBCDE90E01FCF73FFC129046
:1040B0004FF07E511298FCF75FFC04D34D491298E3
:1040C000FCF750FC01D205204FE700211F98FCF7B8
:1040D00049FC02D24748109002E04FF07E50109009
:1040E0001298FCF7DFFBCDE90801FFF723F8CDE9D3
:1040F0000C01DDE91010FCF765F90990FCF7D2FB23
:10410000CDE90A01DDE90C23FCF7CCF9CDE90E017C
:10411000FCF70CFC19901998FCF7C4FB0022324BF9
:10412000CDE90A01FCF765FA304A314BCDE90C01C3
:10413000FCF7D1FACDE90E01FCF7F8FB19901998BC
:10414000FCF7B0FB0022284BCDE90E01FCF7D6FBB3
:1041500009D31998FCF7A6FB00221346CDE90E01FE
:10416000FCF7B4FB01D20620FFE64FF08040169921
:10417000FCF728F90D901599FCF724F90F90159983
:104180000846FCF71FF90D9016990846FCF71AF936
:104190000B901F990846FCF715F909901E990846DF
:1041A000FCF710F908900999FCF7B4F80A900B99FC
:1041B000FCF702F90C900D99FCF7FEF880F0004036
:1041C0000E900F99FCF730F913904FF07E51139831
:1041D000FCF7D2FB04D307491398FCF7C3FB0BD2BF
:1041E0000320C2E600002041008066404AD8124DFC
:1041F000FB210940000080BF1398FCF753FBCDE979
:104200000C01FEF797FFCDE90E01FCF78FFB1A902A
:104210001A98FCF747FB00226F4BCDE90801FCF729
:10422000E8F96E4A6E4BCDE90A01FCF754FA002218
:10423000694BCDE90C01FCF7D9F9CDE90E01FCF78A
:1042400075FB1A901A98FCF72DFB0022654BCDE9FF
:104250000E01FCF753FB09D31A98FCF723FB00224D
:10426000614BCDE90E01FCF731FB01D204207CE665
:1042700019992098FCF7A0F80F901A99FCF74AF8C2
:104280001B901B98FCF70EFB0022584BCDE90E014A
:10429000FCF734FB09D31B98FCF704FB0022544BBA
:1042A000CDE90E01FCF712FB01D207205DE6229951
:1042B000189808614F491998FCF77EF80146229832
:1042C00041611A99229881611B992298C1612298B3
:1042D00000690590FCF7E6FA0022474BCDE906019C
:1042E000FCF787F90022454BCDE90801FCF7F3F90B
:1042F0000022434BCDE90A01FCF778F9CDE90C0126
:10430000FCF7B1FA0F90FCF755FA2299086422984D
:1043100040690590FCF7C6FA0022374BCDE906014B
:10432000FCF767F90022354BCDE90801FCF7D3F91A
:104330000022334BCDE90A01FCF7B4F8CDE90C01BA
:10434000FCF791FA0F90FCF735FA01462298416488
:10435000229880690590FCF7A5FA0022264BCDE94A
:104360000601FCF746F90022244BCDE90801FCF7D1
:10437000B2F90022224BCDE90A01FCF793F8CDE90E
:104380000C01FCF770FA0F90FCF714FA0146229822
:1043900081642298C0690590FCF784FA0022164BCC
:1043A000CDE90601FCF725F90022144BCDE90801FF
:1043B000FCF791F90022124BCDE90A01FCF716F93E
:1043C000CDE90C01FCF74FFA0F90FCF7F3F9014629
:1043D0002298C1640020C8E5008066404AD8124D8A
:1043E000FB21094000E0604000E060C000805640D2
:1043F000008056C00000B44200409F4000E0704082
:10440000007097402DE9FC5F81460E4692461F469C
:104410004FF00008C34600213046FCF7A3FA02D251
:104420000020BDE8FC9F4FF0000B002412E0204666
:10443000FCF7C0F901901B480090524631464846AF
:10444000019BFFF7CFFC20B9444500DAA0464FF0AE
:10445000010B641E14F1870FE9DABBF1000F1ED0C7
:104460004046FCF7A7F901900E48009052463146AD
:104470004846019BFFF7B6FC00250CE00949403196
:1044800051F82500FCF7C2F93A460146019028464A
:1044900001F086FA6D1C042DF0DB0120C1E700203D
:1044A000BFE700007C1A002008B501210820FDF7B5
:1044B0005BF94FF40050ADF8000010208DF80300B8
:1044C00003208DF8020069460148FCF7A3FF08BDF0
:1044D000000C014010B53348007800285CD100F092
:1044E000BBF80021304AD2E90032C31A61EB020165
:1044F0002E4800680022C01A8A4150DA00F0ACF859
:104500000021294A03C22A48006848B129480068A6
:1045100030B901202349087027A001F0C5FD10BD66
:1045200028480068FFF7AAFA274800682749096861
:10453000884218DA234800682449096888420CD167
:10454000214800681F4908601948006820B11948CF
:104550000068401E17490860E1E71A480068401CDF
:10456000184908601BE01748006818490968884224
:104570000CD115480068134908600D48006820B147
:104580000C480068401E0B490860C8E70D480068E9
:10459000401E0C49086002E00A200449086000BF80
:1045A000BDE70000B9000020E0000020D800002096
:1045B000CC000020C00000204047726F7570446F2F
:1045C0006E652100BC000020C4000020C80000204F
:1045D00008B500F08FFFFDF73FFBFDF75BFA01F038
:1045E0004BF9472144F62060FDF7FEFC01F00AFB81
:1045F000FEF7DEFEFEF7DEFFFEF70EFFFEF740FFE2
:1046000000F030F862B6FEF7B3FF0D480D4B0E4ACE
:104610000E4900900E4801F023FA4FF47A730D4AC8
:104620000B490846FFF7EEFE09E0FEF7D3FEFEF762
:10463000DBFFFEF7F5FEFFF74DFFFEF759FFF4E74E
:104640007C1A002000001B430000B0420000D24250
:104650000000C8420000F0410148006870470000B7
:10466000A000002010B50024012001F025FB0A2045
:10467000FFF7E0F9C0221F491F4801F04DFB1E481B
:1046800000681E49884204D008461B490860002083
:1046900048601948D0F8AC0025280ED0002406E068
:1046A000002115488C3040F82410601CC4B2082C3E
:1046B000F6DB25211048C0F8AC10002407E00022EA
:1046C00040F2DC51204601F06BF9601CC4B2082CAA
:1046D000F5DB002001F0F0FA074890F88800252863
:1046E00007D10548007A242803D10348083000F098
:1046F00071F910BD00F07F00BC190020E1EE33011C
:104700002DE9FC5F04460026204601F007FF2078D3
:1047100023287DD120795028FBD160795328F8D106
:10472000A0794328F5D1E0794B2871D1207B21284D
:104730006ED16078303864214843A178303901EB7C
:10474000810100EB4101E0783038084485B2607A9D
:10475000303864214843A17A303901EB810100EB04
:104760004101E07A30380F1817F5FA7F63DBB7F5AF
:10477000FA7F60DC082D5EDA207A2B2820D13846BB
:10478000FCF718F88E49019051F82500FCF712F853
:10479000009005EB45008B4A02EB800041680098D1
:1047A000FBF70DFE83460199FBF7B4FD05EB4501D0
:1047B000844A02EB81014860814840F8257023E07B
:1047C000207A2D2820D13846FBF7F4FF7C49019050
:1047D00051F82500FBF7EEFF009005EB4500794A04
:1047E00002EB800041680098FBF7E9FD83460199E0
:1047F000FBF7E2FD05EB4501724A02EB81014860DF
:1048000079426F4840F8251005EB45016D4A00E0FC
:1048100012E002EB81014868FCF711F805EB450155
:10482000684A22F82100684805EB450102EB810146
:10483000886000F099FE52E0207823284FD120793B
:1048400050284CD16079442849D1A079532846D1C9
:10485000E079542843D1207A212840D1607830383B
:1048600064214843A178303901EB810100EB41011B
:10487000E0783038084485B2082D13DA002005EBC3
:104880004501504A02EB8101886005EB450102EBCE
:1048900081014868FBF7D3FF05EB4501494A22F83F
:1048A00021001AE0FF2D18D1002514E0002005EBAF
:1048B0004501444A02EB8101886005EB450102EBAA
:1048C00081014868FBF7BBFF05EB45013D4A22F833
:1048D0002100681C85B2082DE8DBBDE8FC9F20465E
:1048E000FBF746FC804664E0A05D232813D1002539
:1048F000701C86B208E0A05D05EB850100EB41006D
:10490000303885B2701C86B2A05D002851D0A05D01
:1049100050284ED0EFE7A05D50281DD14FF0000A7F
:10492000701C86B212E0A05DFBF74DFF2749019095
:104930005046FBF747FD00900199FBF7EBFC8346DF
:104940002349FBF739FD8246701C86B2A05D68B32F
:10495000A05D54282DD0E6E7A05D542827D14FF064
:104960000009701C86B209E0A05D09EB890100EB2B
:10497000410030381FFA80F9701C86B2A05D10B17A
:10498000A05D2128F0D10E4951F82500FBF712FF58
:1049900083465146FBF7BEFC82465046FBF736FF86
:1049A0008346E8B24A465946FFF78CF801E0701C8E
:1049B00086B2A05D08B1B04596DA00BF8DE7000071
:1049C000481A00205C1500206F12833A0000204135
:1049D000000040422DE9F14F88B0FCA1089801F099
:1049E000B7FA8246BAF1000F03D0FAA001F05CFBDF
:1049F000F7E2FBA1089801F0ABFA8246BAF1000F8A
:104A00002AD00120F84908704FF0000B14E0002074
:104A10000BEB4B01F54A02EB810188600BEB4B017C
:104A200002EB81014868FBF70AFF0BEB4B01EF4AF1
:104A300022F821000BF1010BBBF1080FE7DBECA022
:104A400001F06CFD00231A4619461846FEF73CFF9C
:104A5000FF20EA490870C4E2E9A1089801F078FA59
:104A60008246BAF1000F2AD006AAE7A10898FBF700
:104A70008FFB0028BCD00020069901EB4101DB4AE6
:104A800002EB81018860069901EB410102EB810193
:104A90004868FBF7D4FE069901EB4101D34A22F89E
:104AA0002100DCA1DF48069AFDF734FEDD4801F065
:104AB00035FD4FF48061DB48FBF74FFB91E2DAA153
:104AC000089801F045FA8246BAF1000F02D001F0D1
:104AD00051F886E2D6A1089801F03AFA8246BAF176
:104AE000000F0CD004AB05AAD3A10898FBF750FB2C
:104AF0000028B0D0DDE9041000F00EFC71E2D1A175
:104B0000089801F025FA8246BAF1000F0DD005AAE7
:104B1000CEA10898FBF73CFB00289CD00120B249AD
:104B200008700598FEF7AAFF5BE2CBA1089801F098
:104B30000FFA8246BAF1000F23D0C948C94BCA4ABE
:104B4000CAA100900898FBF723FB0028B6D00120EB
:104B5000A5490870C4480068C249096888420BD05A
:104B6000C1480068C5490860BD480068C44908607C
:104B700000209D49087034E2BB480068FEF77EFFC4
:104B80002FE2C0A1089801F0E3F98246BAF1000FC4
:104B900012D002A803A904AB05AACDE90010BBA15D
:104BA0000898FBF7F5FA002888D0DDE90232DDE944
:104BB0000410FEF789FE14E2B9A1089801F0C8F9C3
:104BC0008246BAF1000F56D0B7A001F0A7FC00232F
:104BD0001A4619461846FEF777FEFF2087490870E7
:104BE0004FF0000B43E0B44830F82B0000F2DC50EB
:104BF0000BEB4B017D4A22F821004FF4FA600BEBDE
:104C00004B0102EB810148800BEB4B0102EB810170
:104C10004888FBF7EEFD06460022A84BFBF75BFD3C
:104C2000804689460BEB4B01704A32F82100FBF7B6
:104C3000CAFD07460BEB4B006C4A02EB8000416853
:104C40003846FBF7B9FB0646FBF72CFE42464B46BF
:104C5000CDE90001FBF73FFD0446FBF767FE0BEBD8
:104C60004B01624A02EB810188600BF1010BBBF141
:104C7000080FB8DBB5E192A1089801F069F9824606
:104C8000BAF1000F07D064210120FEF703FEFF20D8
:104C90005A490870A5E18CA1089801F059F982469B
:104CA000BAF1000F07D064210120FEF7F3FD0120C7
:104CB0005249087095E186A1089801F049F98246A9
:104CC000BAF1000F07D064210120FEF7E3FD0220B6
:104CD0004A49087085E180A1089801F039F98246B7
:104CE000BAF1000F13D064210120FEF7D3FD7C48F8
:104CF000007801F095FB7A480078401C78490870EC
:104D0000084600780728B5DD0020087069E175A124
:104D1000089801F01DF98246BAF1000F07D064210E
:104D20000120FEF7B7FD04203449087059E16FA156
:104D3000089801F00DF98246BAF1000F07D06421FE
:104D40000120FEF7A7FD05202C49087049E169A163
:104D5000089801F0FDF88246BAF1000F07D06421EF
:104D60000120FEF797FD06202449087039E163A170
:104D7000089801F0EDF88246BAF1000F03D061A067
:104D800001F092F92DE160A1089801F0E1F8824666
:104D9000BAF1000F19D005AA5DA16048FBF7F8F938
:104DA000002887D0154905980870059810B95CA0AF
:104DB00001F0B4FB0598022802D15DA001F0AEFB22
:104DC00064210120FEF766FD0BE1B9E02444525353
:104DD0002100000068656C6C6F20776F72642100A1
:104DE0002444535421000000B90000205C15002029
:104DF000233235355044535421000000B8000020C0
:104E0000244453543A000000244453543A25642166
:104E100000000000232530336450445354210D0A10
:104E200000000000BC150020245253542100000053
:104E3000245054473A000000245054473A25642D2A
:104E400025642100244447533A000000244447537A
:104E50003A25642100000000244447543A00000031
:104E6000CC000020C8000020C40000202444475487
:104E70003A25642D25642C2564210000BC00002007
:104E8000C0000020244443523A000000244443520E
:104E90003A25642C25642C25642C2564210000000F
:104EA00024444A5221000000233235355031353038
:104EB0003054323030302100481A00200000344095
:104EC00024545A210000000059535342210000008D
:104ED000444A4A5121000000524742442100000048
:104EE000DC000020534B4A51210000004857434644
:104EF00021000000434D4A51210000002447455441
:104F0000412100004141410024534D4F44450000E0
:104F100024534D4F44452564210000002C010020FE
:104F2000233031305031353132543030303021007F
:104F30002330313050313531315430303030210070
:104F400029A1089801F004F88246BAF1000F1DD09B
:104F5000FF20294908700A20FEF76CFDAFF270109F
:104F6000FFF7CEFB0A20FEF765FD24A001F09CF8B8
:104F70000A20FEF75FFD29A001F096F80A20FEF74F
:104F800059FD64210120FEF785FC2AE025A108983F
:104F900000F0DEFF8246BAF1000F22D002A803A97A
:104FA00004AB05AACDE9001020A10898FBF7F0F8A2
:104FB000B8B123A001F078F80398FBF7FBFB044697
:104FC0000498FBF7F7FB05460598FBF7F3FB06464D
:104FD00022462946029BFFF715FA10B91EA001F0E0
:104FE00063F809B0BDE8F08F24534D4152545F532C
:104FF000544F502100000000B8000020233030360C
:10500000503135303054303030302123303037504B
:10501000313530305430303030210000404F4B219A
:1050200000000000244B4D533A000000244B4D5328
:105030003A25642C25642C25642C2564210000006D
:1050400054727920746F2066696E6420626573748F
:1050500020706F733A0D0A0043616E2774206669F1
:105060006E64206265737420706F732121210000CB
:105070002DE9F04107460E4600257878397800EB97
:1050800001209749088097480088098888426ED097
:10509000934800889449088091480088914909887C
:1050A00008408F490880002405E10120A0408C4978
:1050B0000988084000287DD10120A040894909883D
:1050C000084000287FD04FF480618848FBF745F8FE
:1050D000732E0DD1864951F82400FBF749F880461C
:1050E000834850F8241042468048FBF71DF810E032
:1050F000412E0DD17F4951F82400FBF739F8804645
:105100007C4850F8241042467848FBF70DF800E040
:10511000CFE079A1754800F01BFFC5B21DB1002199
:10512000681E724A115475A1704800F011FFF8B161
:10513000002240F225517248FDF73FFA00207149E4
:1051400008806A490B317048FBF719F86E496748C7
:10515000FBF715F801206B490880012240F2255128
:105160006748FDF72AFA01206849087026E0B4E094
:1051700067A15E4800F0ECFE00B3002240F225512A
:105180005F48FDF71AFA00205E49088057490B3145
:105190005D48FAF7F4FF5C495448FAF7F0FF012044
:1051A00058490880012240F225515548FDF705FA7B
:1051B000022001E057E006E0544908704FF6FF7006
:1051C0004849088074E04FF480614848FAF7C5FF09
:1051D000732E0DD1464951F82400FAF7C9FF8046D5
:1051E000434850F8241042464048FAF79DFF10E02B
:1051F000412E0DD13F4951F82400FAF7B9FF8046FE
:105200003C4850F8241042463848FAF78DFF00E039
:105210004FE039A1354800F09BFEC5B2002D47D0C4
:105220003249481935A100F093FEE8B1002240F25E
:1052300025513348FDF7C1F90020324908802B4839
:1052400041193148FAF79BFF2F48FAF791FF401EAA
:105250002D4900220A542548FAF791FF01202949D7
:1052600008802A49087023E02049481928A100F045
:105270006FFEE8B1002240F225512148FDF79DF96B
:10528000002020490880194841191F48FAF777FF84
:105290001D48FAF76DFF401E1B4900220A541348AF
:1052A000FAF76DFF0120174908800220174908709E
:1052B00000BF601CC4B2102CFFF6F7AE0A4800888D
:1052C0000849088020211348FCF78CF90A20FEF7D2
:1052D000B1FB20210F48FCF783F9BDE8F081000005
:1052E0008E0000208C000020900000202C01002067
:1052F00004000020440000205E00000024000000A4
:1053000000380140A6000020BC150020A8000020A5
:1053100023000000000C014013B5012000F0CCFC7C
:105320000A20FEF787FBDDE90001884203DD01A9C1
:105330006846FEF751FD14E04FF480610D48FAF71E
:105340000CFF009801024FF480720A4800F0E4FC60
:10535000084800F0A9FE08A000F0A6FE0098401C36
:105360000090DDE900018842E6DD002000F0A4FCA9
:105370001CBD00002C0100200D0A000008B5012111
:105380000420FCF7F1F94FF40040ADF800002820AC
:105390008DF8030003208DF8020069461848FCF7D9
:1053A00039F84FF48040ADF8000010208DF803006C
:1053B00003208DF8020069461148FCF72BF84FF4E2
:1053C0000050ADF8000069460D48FCF723F84FF493
:1053D0008050ADF8000069460948FCF71BF801222F
:1053E00051030748FCF700F9012211030448FCF7B8
:1053F000FBF8012291030248FCF7F6F808BD000013
:10540000000801402DE9F04105462F460026002402
:105410002AE00120A04000EA07024FF4804115482D
:10542000FCF7E2F8012211031248FCF7DDF8062030
:10543000FEF715FB00224FF480510E48FCF7D4F81C
:105440000620FEF70CFB012211030A48FCF7CCF8FA
:105450004FF400410748FCF7B1F818B10120A04013
:105460003043C6B2601CC4B2082CD2DB3046BDE863
:10547000F08100000008014010B500224FF40051F7
:105480001A48FCF7B1F80120FFF7BCFF1849087073
:105490004220FFF7B7FF164948700878FFF7B2FFC0
:1054A000134988700878FFF7ADFF1149C870087874
:1054B000FFF7A8FF0E4908710878FFF7A3FF0C4912
:1054C00048710878FFF79EFF094988710878FFF74F
:1054D00099FF0749C8710878FFF794FF04490872DB
:1054E000012251030148FCF77FF810BD000801407C
:1054F0005215002010B5FCF757F94FF48030FCF737
:1055000015FAFCF771FA044600BF002CFDD000200C
:10551000FCF700FA4FF48060FCF72EFA0020FCF74D
:1055200037FA4FF4E0114FF48030FCF743FA0120D2
:10553000FCF73AFA00BF3920FCF7C6F90028FAD088
:105540000220FCF745FA00BFFCF7DCF90828FBD184
:1055500010BD04E003788B4200D10270401C037838
:10556000002BF7D17047000010B5012000F0A4FB1C
:105570000A20FEF75FFA40F2FF7000F01DFBC02228
:1055800003490448FCF706FB002000F095FB10BD22
:1055900000F07F00BC19002070B5044600250120F2
:1055A00000F08AFB0A20FEF745FA607824280CD127
:1055B000A078212809D100213C4880F88810FFF705
:1055C000D3FF3BA000F070FD70BD607824281FD190
:1055D000812136480830FAF7C0FD611C3348083095
:1055E000FAF7CDFD2046FAF7C3FD801E2F4908319A
:1055F00000220A5425212D4880F88810FFF7B4FFB7
:1056000030A000F08BFF2948083000F087FFDBE76F
:10561000A07830384FF47A714843E178303901EBA3
:10562000C10202EB011100EB81012079303800EB5F
:10563000800001EB4001607930380D18681C10B112
:10564000A079232803D024A000F02EFDBCE7280277
:10565000C11700EB11510913A0EB013131B92E0232
:10566000F11706EB1151081300F0A6FA7B223C213A
:105670002046FFF76EFF7D223E212046FFF769FF9F
:105680002046FAF775FD401C86B2290232462046B4
:1056900000F0A2FB11A000F007FD10A000F08AFDB1
:1056A000002000F009FB00BF8EE70000BC190020BD
:1056B00040434C454152205052455F434D44204F9A
:1056C0004B21000040534554205052455F434D4408
:1056D000204F4B2100000000450000004100000069
:1056E0002DE9F0411426012211462948FBF77CFFE1
:1056F0003220FEF7B4F9002201212548FBF774FFA0
:1057000001212448FCF7CCFCFEF7A6FF05460BE080
:10571000FEF7A2FF401BB04206D900211D48FCF74E
:10572000BFFC1D48BDE8F08104211C48FBF746FF83
:105730000028EDD000211748FCF737FDFEF78CFF5D
:1057400005460AE0FEF788FF401BB04205D900215C
:105750001048FCF7A5FC1048E4E704210F48FBF7CC
:105760002DFF0028EED10B48243004880021094881
:10577000FCF796FC46F2A810844207DA2046FBF7B5
:1057800022F807460649FAF71DFECBE70248C9E7AB
:10579000000C0140002C0140000080BF00080140C7
:1057A00096430B3D2DE9F047044604EB4401314A92
:1057B00002EB810188680021FBF7D4F858D004EB94
:1057C00044002C4931F8205040F6BA10854201DDE2
:1057D000054604E0B5F5FA7F01DA4FF4FA7504EBFB
:1057E0004402244B03EB8202916804EB440203EB76
:1057F00082029068FAF78EFD8046FDF78FFC064620
:105800002846FAF7D7FF814604EB4400194A02EB19
:10581000800041684846FAF7CFFD8046FDF77EFCE0
:1058200007463146FBF79EF80FD82846FAF7C2FF25
:1058300004EB44010F4A02EB81014860002004EBB5
:10584000440102EB8101886012E004EB4402094B41
:1058500003EB8202916804EB440203EB820250687E
:10586000FAF758FD04EB4401024A02EB810148605B
:10587000BDE8F0875C15002038B501210820FBF752
:1058800073FF0820ADF8000003208DF802001020FF
:105890008DF8030069462448FBF7BCFD4FF4807087
:1058A000ADF8000069462048FBF7B4FD4FF40070E6
:1058B000ADF8000069461C48FBF7ACFD4020ADF890
:1058C000000069461848FBF7A5FD8020ADF80000F0
:1058D00069461548FBF79EFD1020ADF800006946AB
:1058E0001148FBF797FD00241BE040F2DC5004EB6D
:1058F00044010E4A22F821000D4804EB440102EB5A
:1059000081014860002004EB440102EB81018860C2
:1059100041F2883004EB440102EB81014880601CB5
:10592000C4B2082CE1DB38BD000C01405C1500203E
:105930000080BB4470B504460D46062C2AD2DFE831
:1059400004F0030910171D232A4608211348FBF70A
:105950004BFE20E02A464FF480711048FBF744FECE
:1059600019E02A464FF400710C48FBF73DFE12E0A7
:105970002A4640210948FBF737FE0CE02A468021E1
:105980000648FBF731FE06E02A4610210348FBF7E4
:105990002BFE00E000BF00BF70BD0000000C014006
:1059A0002DE9FF4704468946924604EB4401244A08
:1059B00022F8219004EB440102EB8101A1F802A03E
:1059C00004EB440102EB81014888FAF712FF074615
:1059D00000221C4BFAF77FFE05460E4604EB4401FD
:1059E000174A32F82100FAF7EEFE804604EB440035
:1059F000134A02EB800041684046FAF7DDFC074697
:105A0000FAF750FF2A463346CDE90001FAF763FE64
:105A1000CDE90201FAF78AFF04EB4401084A02EBE0
:105A2000810188604B46224607A10C48CDF800A0B2
:105A3000FCF770FE0948FEF763FEBDE8FF87000033
:105A40005C1500200000344023253033645025309D
:105A5000346454253034642100000000BC1500205B
:105A60002DE9F04180460D4616461F46069C0B491F
:105A70004046FAF7A7FC206008492846FAF7A2FC3E
:105A8000606006493046FAF79DFCA060034938463D
:105A9000FAF798FCE060BDE8F081000000002041CA
:105AA00000B5254B21F0004287B09A4203DC00226A
:105AB000134600922BE0214B9A4208D140B94FF097
:105AC0000100FDF77FF9FDF75EF907B000BD03DBCC
:105AD000FDF756F907B000BD02AAFCF743FE10F02F
