S31508000000F01F0020050100080117000877160008F0
S31508000010FD1600089D1300085F2700080000000071
S31508000020000000000000000000000000151B00088A
S31508000030971400080000000089170008CD1C000866
S315080000401F0100081F0100081F0100081F01000802
S315080000501F0100081F0100081F0100081F010008F2
S315080000601F0100081F0100081F0100081F010008E2
S315080000701F0100081F0100081F0100081F010008D2
S31508000080A11300081F0100081F0100081F0100082E
S315080000901F0100081F0100081F0100081F010008B2
S315080000A01F0100081F0100081F0100081F010008A2
S315080000B0A91F0008B92000081F0100081F01000831
S315080000C01F0100081F0100081F0100081F01000882
S315080000D01F010008C52200081F010008E9230008BF
S315080000E01F0100081F0100081F010008DFF810D0D3
S315080000F000F01AFE0048004799490008AFF300804F
S31508000100F01F00200648804706480047FEE7FEE73E
S31508000110FEE7FEE7FEE7FEE7FEE7FEE7FEE7FEE7A9
S315080001203D1D0008ED00000840EA01039B0703D0C7
S3150800013009E008C9121F08C0042AFAD203E011F818
S31508000140013B00F8013B521EF9D27047D2B201E0DA
S3150800015000F8012B491EFBD270470022F6E710B5BE
S3150800016013460A4604461946FFF7F0FF204610BD17
S31508000170421C10F8011B0029FBD1801A7047034660
S3150800018011F8012B00F8012B002AF9D118467047FF
S315080001900FB400B58DB010A909900B9000914FF0DF
S315080001A0FF300A9000200C900548069005480790F5
S315080001B06A4609A80F9900F075FC0DB05DF814FBA6
S315080001C0C10A0008DF0A00082DE9FF5F1D464FF047
S315080001D0FF3BD5E9014691465F464FF00008A969FD
S315080001E07F1C01988847296A824688470028F6D1E5
S315080001F0BAF1FF3F0CD024F4C064002E19DD600666
S3150800020014D5BAF12B0F09D0BAF12D0F0ED103E090
S31508000210584604B0BDE8F09F44F48064A9697F1C81
S3150800022001988847761E8246002E02DDBAF1300F05
S3150800023003D0B9F1000F26D032E0A969761E44F43E
S3150800024000747F1C019888478246002E05DDBAF1A6
S31508000250780F06D0BAF1580F03D0B9F1000F10D0B5
S315080002601EE0B9F1000F02D0B9F1100F18D1A96933
S31508000270761E24F400747F1C019888478246102055
S3150800028002E0082000E00A20814609E008FB090888
S31508000290A969761E44F400747F1C01988847824633
S315080002A0002E05DD4946504600F0E8FB0028EDDA49
S315080002B0E96901988847A00502D46FF00100A8E70C
S315080002C0E00725D1600613D5600502D5C8F1000000
S315080002D000E0404629680A1D2A600968220501D5FA
S315080002E0087015E0220701D5088011E008600FE0C4
S315080002F02868011D29600068210502D580F800805C
S3150800030006E0210702D5A0F8008001E0C0F80080C9
S3150800031038467EE7F0B480EA0102D40F4200B2EB19
S31508000320410F02D20246084611464A0042D0C30D82
S31508000330DDB2C1F3C752AD1A202D35DAC1F3160165
S3150800034041F4000204B15242C5F1200602FA06F150
S315080003502A411044B3EBD05F23D0C4B1012DA0EBE2
S31508000360C35009DCF0BC4FF0004202EAC352DBB2CC
S3150800037000F5000000F0CDBB400000F1807000EBF6
S31508000380C350A0F1807040EAD170490009E04908DD
S3150800039041EAC071A0EBC35000F50000400800EB2D
S315080003A0C350F0BC00F0ACBB6142012202EB410134
S315080003B0001BF6E7F0BC704781F00041AAE780F021
S315080003C00040A7E780EA010210B502F000434000AA
S315080003D022D04A001FD0010E01EB1261C0F356006D
S315080003E0C2F3560240F4000042F40002A0FB0220C9
S315080003F000047F39140400D0401C50EA124001D48E
S315080004004000491EC2B20C0604EBD010401C40083E
S31508000410802A02D003E0002010BD20F00100002948
S3150800042000DA0020184310BD30B480EA010202F059
S31508000430004530F0004221F0004013D090B1C30DC2
S31508000440D40DC2F31601C0F31600E41A41F40001F4
S3150800045040F400027D34914201D3641C00E0490057
S31508000460002C02DA30BC002070474FF4000000234D
S31508000470914201D3891A034340084FEA4101F7D153
S3150800048051B1914202D14FF0004105E002D24FF03E
S31508000490010101E06FF0010103EBC450284430BCB0
S315080004A000F02EBB2DE9FE4F804681EA0300C00FFF
S315080004B00C46009021F0004123F00045B8EB0200FD
S315080004C0A94105D24046214690461C460B4602469F
S315080004D023F00040104347D0270DC7F30A00C3F3A3
S315080004E00A510290401A019040286BDAC3F31300B0
S315080004F040F4801B0098924620B10023D2EB030AF1
S3150800050063EB0B0B01985946C0F14002504600F0C8
S3150800051084FA06460D4650465946019A00F09CFA5A
S3150800052010EB08006141002487EA115284EAE77358
S315080005301A4340D0009A62B3019A012A4FEA075239
S3150800054015DC001B61EB02014FF0004202EA07527C
S31508000550CDE90042001C41F5801132462B4600F0D9
S3150800056015FB03B0BDE8F08F40462146F9E7001BAE
S3150800057061EB0201001C41F5801300185B4120184D
S31508000580A2F5001747EB030140EAD570B6196D418D
S3150800059011E06D084FEA360645EAC0754FEA07527C
S315080005A0001B61EB0201001C41F5801149084FEA66
S315080005B030000019514132462B4603B0BDE8F04FD2
S315080005C000F0D5BA0098012240000023D0EB0202C1
S315080005D063EBE073009821464FEAE074B8EB00003D
S315080005E061EB0401E9E783F000435BE781F0004132
S315080005F058E72DE9FE4F81EA030404F0004421F090
S31508000600004100944FF0000B23F0004350EA010428
S315080006105ED052EA03045BD0C3F30A54C1F30A5509
S315080006202C44A4F2F3340194A0FB0254C1F3130141
S3150800063041F48011C3F3130343F4801301FB02440E
S3150800064000FB034E840A970A44EA815447EA835713
S31508000650A4FB076802958D0A05FB07854FEA932CCC
S3150800066004FB0C542705029D4FEA065847EA16373D
S31508000670B5EB08056EEB070C870E920E47EA811755
S3150800068042EA8312A7FB0201B6EB0B0164EB0004F6
S315080006902B0D43EA0C335E1844EB1C50DA465146E0
S315080006A0E7FB0201C5F313044FEA0B3343EA14537D
S315080006B04FEA0432019C43EA0603A4F10C040294AF
S315080006C0009CCDE900B400F061FA03B0BDE8F08FF4
S315080006D000200146F9E72DE9F04D81EA030404F00C
S315080006E0004B21F0004514464FF0000A23F0004164
S315080006F050EA050220D054EA01021DD0C5F30A5774
S315080007000246C5F31303C1F31300C1F30A5640F4B6
S31508000710801543F48013A7EB0608101BD64608F28B
S31508000720FD3873EB050002D308F1010801E09218C1
S315080007305B41B8F1000F03DA00200146BDE8F08DF1
S3150800074000204FF48011064684460EE0171B73EB13
S31508000750050705D3121B63EB050306434CEA010C98
S3150800076049084FEA300092185B4150EA0107EDD17B
S3150800077052EA030012D082EA040083EA050108431C
S3150800078005D0101BAB4106D20122002306E0002249
S315080007904FF0004302E06FF0010253101AEB060017
S315080007A04CEB085110EB0A0041EB0B01BDE8F04D8C
S315080007B000F0DDB9C10F80EAE0700844CA07962345
S315080007C0002100F0A6B996230022114600F0A1B92F
S315080007D00EB5C10F80EAE0700844CA07002140F24E
S315080007E033438DE80E000A460B4600F0CFF903B0F6
S315080007F000BD0EB540F2334102910021CDE900114A
S315080008000A460B4600F0C2F903B000BD00F00042EC
S3150800081020F00040C10DC0F3160040F400007F2907
S3150800082001DA00207047962903DCC1F19601C84019
S3150800083001E096398840002AF4D04042704720F0FB
S315080008400040C10DC0F3160040F400007F2901DA0C
S3150800085000207047962903DCC1F19601C84070470D
S3150800086096398840704770B5C1F30A5201F00045C1
S315080008700024C1F3130140F2FF3341F480119A4278
S3150800088001DA002070BD40F233439A42A2F23342A5
S3150800089003DC524200F0D0F800E090402C43F1D03F
S315080008A0404270BD00F0004230F000400AD0C10D51
S315080008B001F56071C0F3160042EA0151C20840070B
S315080008C011437047002001467047000030B5041EEA
S315080008D071F1000404DB4FF00044404264EB01016F
S315080008E0141E73F1000405DB1C464FF00043524208
S315080008F063EB04038B4208BF824230BD30B5041E49
S3150800090071F1000404DB4FF00044404264EB01013E
S31508000910141E73F1000405DB1C464FF000435242D7
S3150800092063EB0403994208BF904230BD01F00043CF
S3150800093030B421F0004150EA010206D00A0DA2F5B2
S315080009406072C1F31301002A02DC30BC0020704734
S31508000950440F44EAC104C100E01830BC00EBC250A1
S3150800096000F0CEB8002801DBC0F10040002901DB09
S31508000970C1F1004181427047002801DBC0F1004007
S31508000980002901DBC1F100418842704730B50B46AA
S31508000990014600202022012409E021FA02F59D42A1
S315080009A005D303FA02F5491B04FA02F52844151E75
S315080009B0A2F10102F1DC30BD2DE9F05F0546002009
S315080009C092469B4688460646814640241BE02846B2
S315080009D041464746224600F02FF853465A46C01A63
S315080009E0914110D311461846224600F016F82D1AE2
S315080009F067EB01084F4622460120002100F00DF85A
S31508000A0017EB00094E41201EA4F10104DFDC48461D
S31508000A1031462A464346BDE8F09F202A04DB203AA1
S31508000A2000FA02F1002070479140C2F1200320FA33
S31508000A3003F3194390407047202A04DB203A21FA31
S31508000A4002F00021704721FA02F3D040C2F12002D9
S31508000A509140084319467047202A06DBCB17203AEF
S31508000A6041FA02F043EAE07306E041FA02F3D040A5
S31508000A70C2F1200291400843194670473A2800D22D
S31508000A80303820F02002412A01D3A2F137008842EB
S31508000A9001D34FF0FF3070470268114413780160A4
S31508000AA018467047D1600449516104491162002112
S31508000AB01161114600F050B9990A00084D0D000859
S31508000AC0426842B1016811F8013B23B1521EC0E9E0
S31508000AD00012184670470121C160881E7047426897
S31508000AE05AB1C368016843B983688B4205D0491E69
S31508000AF0521CC0E90012002070474FF0FF307047C3
S31508000B000029A8BF7047401C490008BF20F0010013
S31508000B10704710B4B0FA80FC00FA0CF050EA0104F1
S31508000B2004BF10BC704749B1CCF1200421FA04F483
S31508000B3011FA0CF118BF012121430843A3EB0C015C
S31508000B40CB1D4FEA00614FEA102042BF002010BCBF
S31508000B50704700EBC35010440029A4BF10BC70476F
S31508000B60401C490008BF20F0010010BC704710B5B2
S31508000B70141E73F1000408DA401C41F100019218B2
S31508000B805B411A4301D120F0010010BD2DE9F04D5B
S31508000B9092469B4611B1B1FA81F202E0B0FA80F2B0
S31508000BA020329046FFF739FF04460F4640EA0A000E
S31508000BB041EA0B0153465A46084313D0114653EAF5
S31508000BC0010019D0C8F140025046FFF735FF054627
S31508000BD00E46504659464246FFF71FFF084305D0C2
S31508000BE0012004E020463946BDE8F08D0020054383
S31508000BF046EAE0762C4337430A986305E40AA0EBF5
S31508000C0008000022FD0A44EA47540A3002D50020AB
S31508000C100146E9E7010510196941DDE908450019AA
S31508000C206941BDE8F04DA2E770B521F000430343E2
S31508000C300CD0C1F30A550024D5EB040564EB040374
S31508000C40D617AD1AB34102DB0020014670BD201845
S31508000C5041EB025170BD2DE9F04D00231A461B1ACF
S31508000C608A4103DB00200146BDE8F08DC1F30A5234
S31508000C70C1F3130141F480154FF0000BD10702D1DF
S31508000C8000186D41521E0027044640F2FF113846EF
S31508000C9001EB620A3E468046024600204FF4801168
S31508000CA0FFF7CAFEC2197141BB1846EB0100B4EB47
S31508000CB0030C75EB000C04D3E41A65EB0005174624
S31508000CC00E46241908F101006D4180463428E3DDFB
S31508000CD0F91946EB0600091BA84103D24FF0FF326B
S31508000CE0134601E0002213461BEB070046EB0A51A8
S31508000CF0BDE8F04DFFF73BBFC1F30A52C1F313013C
S31508000D0040F2FF3341F480119A4202DA002001468C
S31508000D10704740F233439A42A2F2334202DC52420F
S31508000D20FFF78ABEFFF779BE064C074D06E0E06876
S31508000D3040F0010394E8070098471034AC42F6D314
S31508000D40FFF7D8F90871000828710008C0B24FF4F7
S31508000D50F05100F099B900002DE9F34F8BB04FF030
S31508000D60000801F10C000C464FF0010B46460DF148
S31508000D70080A01906269012101989047051E2DD045
S31508000D80252D2CD0216A8847C0B1626901210198B6
S31508000D909047216A88470028F7D1411E6269019861
S31508000DA0904700E0761CA1690B988847216A884716
S31508000DB00028F7D1E1690B988847DBE7A1690B980A
S31508000DC088470746A84201D1761CD3E7E1690B9804
S31508000DD088477F1C02D1B8F1000F6FD047E1002782
S31508000DE062693D463946019890472A2804D16269C6
S31508000DF00121019890470125DFF88892626901214F
S31508000E0001989047A0F130010A290AD24F45E5DC3E
S31508000E1007EB870100EB4107303FDFD445F01005AB
S31508000E20ECE7E90601D46FF000476C280AD04C2895
S31508000E3014D0682815D06A280DD074281CD07A28B2
S31508000E401AD01DE062690121019890476C2802D0EA
S31508000E5045F0040514E045F002050DE045F02005CF
S31508000E600AE06269012101989047682802D045F096
S31508000E70080505E045F40065626901210198904777
S31508000E80C4E9015765283DD019DC58287AD00CDC0E
S31508000E90452837D004DC252826D0412831D131E031
S31508000EA046282FD047282CD12CE05B2877D06128FC
S31508000EB028D063287CD0642823D15AE0D1E06F2853
S31508000EC048D008DC66281DD067281BD0692821D0A1
S31508000ED06E2816D127E0702845D0732868D0752863
S31508000EE047D078280DD14DE0A1690B98884705466B
S31508000EF025283FF469AFE1690B9888476D1C3FF4D4
S31508000F006AAFB4E023466A466FF001000B99AFF367
S31508000F1000809FE045F040006060A80723464FF038
S31508000F20000236D43EE0E8077FF447AF2068011D8B
S31508000F3021600068290501D506701BE7290701D538
S31508000F40068017E7A90703D5F117C0E9006111E77D
S31508000F5006600FE745F040006060A80723464FF09B
S31508000F60080216D41EE040F60E0125EA010060606C
S31508000F7016E045F040006060A80723464FF00A02D5
S31508000F8007D40FE045F040006060A80708D523465F
S31508000F9010226FF001000B99AFF300805AE007E0CA
S31508000FA0234610226FF001000B99FFF70DF951E067
S31508000FB04FF000094F464B46632802D05B2807D0FE
S31508000FC041E02079C00601D40120A06001273AE05B
S31508000FD062690121019890475E2805D14FF0010901
S31508000FE06269494601989047216939B900210A463C
S31508000FF0534643F82120491C0829FADBB0B3216976
S3150800100069B9C11700EBD16253110AEB830122F0CB
S315080010101F02821A01200B68904003430B60626925
S315080010200121019890475D28E8D1B9F1000F09D050
S315080010300020514651F82020D24341F82020401C78
S315080010400828F7DB02AB224600976FF001000B99E0
S31508001050AFF3008000280CDA401C08D1BBF1000F62
S3150800106005D04FF0FF300DB0BDE8F08FFFE74046E2
S31508001070F9E7E90701D108F1010806444FF0000B2A
S3150800108078E60000CCCCCC0C7F2801D9002208E0F9
S31508001090064A02EB5002C007127800D1120902F084
S315080010A00F0201209040084070470000406C00087D
S315080010B008B50121042000F099FB0220ADF80000D4
S315080010C028208DF803006946014800F0E5F908BDB7
S315080010D00008014010B502210A4800F0B1FA0128BB
S315080010E00FD1052002F01AFF0221064800F0A8FADF
S315080010F0012806D104A003F013FF6421012002F0A1
S31508001100A5FE10BD00080140244447543A322D314B
S31508001110302C31210000000070B52648007800B94F
S3150800112070BD04F071FD06463046FFF7BBFB04466A
S315080011300022214BFFF7E2FB39D23046FFF7B2FB1C
S31508001140044600221D4BFFF7C1FB30D804F05CFDB6
S3150800115006463046FFF7A6FB04460022164BFFF765
S31508001160CDFB24D23046FFF79DFB04460022144BE4
S31508001170FFF7ACFB1BD804F047FD06463046FFF7E1
S3150800118091FB044600220C4BFFF7B8FB0FD2304602
S31508001190FFF788FB04460022094BFFF797FB06D8A2
S315080011A06421012002F052FE06A003F0B9FE00BF3A
S315080011B0B6E700003100002000002C400000304057
S315080011C000002F40244447543A33312D33392C310B
S315080011D02100000010B50121094800F031FA70B964
S315080011E0052002F09BFE0121054800F029FA30B9D6
S315080011F004A003F095FE6421012002F027FE10BD2D
S3150800120000080140244447543A31312D32302C31FC
S315080012102100000008B50121042000F0E7FA0120AA
S31508001220ADF8000048208DF803006946014800F033
S3150800123033F908BD0008014010B50221094800F03D
S31508001240FFF970B9052002F069FE0221054800F091
S31508001250F7F930B904A003F063FE6421012002F017
S31508001260F5FD10BD000C0140244447543A31312D98
S3150800127032302C312100000008B50121082000F089
S31508001280B5FA0220ADF8000048208DF8030069463B
S31508001290014800F001F908BD000C014010B53048BE
S315080012A0007800285AD003F0A1FB2E490968401A95
S315080012B0142853D903F09AFB2A490860002000F045
S315080012C017FE294800F08BFD27480088012845DAD3
S315080012D06421012002F0BAFD012000F009FE4FF456
S315080012E0487002F01BFE204800F079FD1E48408831
S315080012F01D49898888420CDD1B4840881A49C988D7
S31508001300884206DD012005F0F7FA18A003F008FE6A
S3150800131024E0154880881449498888420CDD12481B
S3150800132080881149C988884206DD032005F0E4FA59
S3150800133012A003F0F5FD11E00B48C0880A49898818
S3150800134088420BDD0848C08807494988884205DD78
S31508001350052005F0D1FA0DA003F0E2FD10BD00004E
S31508001360310000201801002064000020244447545E
S315080013703A322D31302C31210000000024444754E4
S315080013803A31312D32302C312100000024444754A3
S315080013903A32312D33302C312100000000BFFEE7F0
S315080013A010B54FF4001000F037F8012814D14005A5
S315080013B000F018F80121094800F0A2FE01221146A2
S315080013C0064800F0CCFE0021054800F019F8002276
S315080013D00221034800F036F810BD00000004004062
S315080013E06C00024000F0805111B10349086001E029
S315080013F002494860704700000404024000000240A9
S3150800140021B1026842F00102026004E002684FF668
S31508001410FE731A400260704701460020002201F060
S31508001420805313B1054B1A6801E0054B1A6802EAA6
S3150800143001030BB1012000E00020704700040240C0
S31508001440000002401AB103680B43036002E0036818
S315080014508B430360704710B50022026847F6F073A5
S315080014609A430C6A8B6823430C6923434C692343CC
S315080014708C692343CC6923434C6A23438C6A2343F0
S315080014801A430260CB6843600B6883604B68C3608D
S3150800149010BD4160704770472DE9F04102460025AE
S315080014A00026002000230024002791F803C00CF032
S315080014B00F0591F803C00CF0100CBCF1000F03D017
S315080014C091F802C04CEA050591F800C0BCF1000F7E
S315080014D031D0146800202BE04FF0010C0CFA00F311
S315080014E0B1F800C00CEA03069E4220D183004FF0F3
S315080014F00F0C0CFA03F7BC4305FA03FC4CEA040488
S3150800150091F803C0BCF1280F06D14FF0010C0CFA74
S3150800151000FCC2F814C00AE091F803C0BCF1480FF9
S3150800152005D14FF0010C0CFA00FCC2F810C0401CA3
S315080015300828D1D31460B1F800C0BCF1FF0F34DD20
S31508001540546800202EE000F1080C4FF0010808FA54
S315080015500CF3B1F800C00CEA03069E4221D18300C1
S315080015604FF00F0C0CFA03F7BC4305FA03FC4CEAE0
S31508001570040491F803C0BCF1280F05D100F1080C4A
S3150800158008FA0CF8C2F8148091F803C0BCF1480FA9
S3150800159007D100F1080C4FF0010808FA0CF8C2F858
S315080015A01080401C0828CED35460BDE8F0810000A6
S315080015B0F0B50A46002300240021002500F0004665
S315080015C0B6F1004F02D11D4EF16901E01B4E71685C
S315080015D0C0F3034583B200F44016B6F5401F08D1A0
S315080015E021F07061154E766826F07066134F7E609E
S315080015F012E000F48016B6F5801F06D1032606FA17
S3150800160005F4A14341F0706106E0460D360103FA80
S3150800161006F6B14341F0706122B1460D360103FA70
S3150800162006F6314300F00046B6F1004F02D1034EEC
S31508001630F16101E0014E7160F0BD0000000001405B
S315080016400246002093680B400BB1012000E0002001
S31508001650704702460020D3680B400BB1012000E01A
S315080016600020704741617047016170470AB1016106
S3150800167000E04161704700BFFEE7000010B5802119
S315080016800148FFF7F1FF10BD0008014010B58021A1
S315080016900148FFF7E7FF10BD0008014010B52021FB
S315080016A00148FFF7E1FF10BD0008014010B52021F1
S315080016B00148FFF7D7FF10BD0008014010B50E48D6
S315080016C0006820F470000C4908600846006840F479
S315080016D00000086020210848FFF7B2FF04460648C4
S315080016E0006820F47000044908600846006840F461
S315080016F040100860204610BD0008014000BFFEE704
S31508001700704700F01F02012191404209920002F140
S31508001710E022C2F80011704770B5002100230F229D
S31508001720C47804B3154C246804F4E064C4F5E06492
S31508001730210AC1F10403CA40447804FA03F1847803
S315080017401440214309010E4C0678A155047804F08B
S315080017501F050124AC4005786D11AD0005F1E025A3
S31508001760C5F8004109E0047804F01F050124AC40DF
S31508001770044D0678761145F8264070BD0CED00E05C
S3150800178000E400E080E100E07047000029B1064A65
S3150800179052690243044B5A6104E0034A5269824380
S315080017A0014B5A61704700000010024029B1064AF1
S315080017B0D2690243044BDA6104E0034AD2698243E0
S315080017C0014BDA61704700000010024029B1064A51
S315080017D012690243044B1A6104E0034A1269824300
S315080017E0014B1A61704700000010024029B1064AF1
S315080017F092690243044B9A6104E0034A9269824360
S31508001800014B9A61704700000010024029B1064A50
S31508001810D2680243044BDA6004E0034AD268824382
S31508001820014BDA6070470000001002400F4800685C
S3150800183040F001000D490860084640680C49084018
S315080018400A494860084600680A4908400749086086
S315080018500846006820F4802008600846406820F49E
S31508001860FE0048604FF41F00886070470010024071
S315080018700000FFF8FFFFF6FE30B500210022002425
S3150800188000232D4D6D6805F00C0121B1042905D002
S31508001890082923D105E0294D056022E0274D05607A
S315080018A01FE0254D6D6805F47012234D6D6805F42B
S315080018B08034022505EB92421CB9214D554305603B
S315080018C00BE01D4D6D6805F400351DB11C4D5543E3
S315080018D0056002E0194D5543056002E0174D0560A5
S315080018E000BF00BF144D6D6805F0F0010909154DDC
S315080018F06B5C0568DD4045600F4D6D6805F4E06179
S31508001900090A104D6B5C4568DD4085600A4D6D68B7
S3150800191005F46051C90A0B4D6B5C4568DD40C5602E
S31508001920054D6D6805F44041890B074D6B5CC5682C
S31508001930B5FBF3F5056130BD0010024000127A00D0
S3150800194000093D00140000202400002010B50146BF
S315080019500022002300204A11012A02D1094C2368DB
S3150800196006E0022A02D1074C236A01E0054C636AA5
S3150800197001F01F02012494401C400CB1012000E034
S31508001980002010BD001002400248406800F00C001C
S31508001990704700000010024001460020034A5068C4
S315080019A020F0F00008435060704700000010024025
S315080019B01149096821F480310F4A116011460968F6
S315080019C021F480211160B0F5803F03D0B0F5802F57
S315080019D00ED106E00849096841F48031064A1160CB
S315080019E007E00549096841F4A021034A116000E0AF
S315080019F000BF00BF704700000010024001460020EB
S31508001A00034A506820F4E0600843506070470000BD
S31508001A100010024001460020034A506820F4605036
S31508001A2040EAC1005060704700100240014908664C
S31508001A30704700000000424202460020044B5868E6
S31508001A4020F47C1042EA01031843014B58607047A2
S31508001A500010024001460020034A506820F00300A7
S31508001A6008435060704700000010024038B5002057
S31508001A7000900024002500BF3120FFF767FF0546C8
S31508001A800098401C00900098B0F5A06F01D0002D7A
S31508001A90F2D03120FFF75AFF08B1012400E00024F4
S31508001AA0204638BD21B1028842F04002028004E097
S31508001AB002884FF6BF731A4002807047024600201C
S31508001AC013890B400BB1012000E000207047014646
S31508001AD0888970478181704710B50022028802F410
S31508001AE041520B884C8823438C882343CC88234354
S31508001AF00C8923434C8923438C892343CC8923436C
S31508001B001A430280838B4FF2FF74234083830B8A28
S31508001B10038210BD7047000010B501210D20FFF7A4
S31508001B2065FE01210148FFF743FD10BD00043000A2
S31508001B3010B500F001F810BD0CB50020019000901A
S31508001B403348006840F480303149086000BF3048A7
S31508001B50006800F4003000900198401C019000983D
S31508001B6018B90198B0F5A06FF1D12948006800F4BA
S31508001B70003010B10120009001E00020009000988C
S31508001B80012843D12348006840F010002149086025
S31508001B900846006820F0030008600846006840F020
S31508001BA0020008601A4840681949486008464068B3
S31508001BB048600846406840F48060486008464068C7
S31508001BC020F47C1048600846406840F4E8104860F5
S31508001BD00846006840F08070086000BF0C4800683E
S31508001BE000F000700028F9D00948406820F003008A
S31508001BF0074948600846406840F00200486000BF50
S31508001C000348406800F00C000828F9D10CBD000014
S31508001C1000100240002002402DE9F04781460F4699
S31508001C2016464FEA1738C7F30B0ACAF58054A64278
S31508001C3000DC344644E04FEA08314FF4805222482B
S31508001C4004F0D8FA002508E00AEB05001E49085CEE
S31508001C50FF2800D003E0681C85B2A542F4DB00BF6C
S31508001C60A54216DA404604F015FA002507E019F8E9
S31508001C70050005EB0A01144A5054681C85B2A542B2
S31508001C80F5DB4FEA08314FF480520F4804F012FB97
S31508001C9004E022463946484604F00CFBA64200D129
S31508001CA00FE008F101084FF0000AA1442744301B51
S31508001CB086B2B6F5805F02DD4FF4805400E0344604
S31508001CC0B9E700BFBDE8F087360100200248006882
S31508001CD0401C0149086070477000002030B5144860
S31508001CE000684FF47A72B0FBF2F1B1F1807F00D34D
S31508001CF01DE021F07F40401E4FF0E0225061501752
S31508001D000F22002807DA13071D0E0A4B00F00F04EE
S31508001D10241F1D5503E013071C0E074B1C5400BF58
S31508001D2000204FF0E02290610720106100BF30BD0F
S31508001D300000002018ED00E000E400E010B51348AC
S31508001D40006840F0010011490860084640681049DB
S31508001D5008400E494860084600680E4908400B4985
S31508001D6008600846006820F4802008600846406835
S31508001D7020F4FE0048604FF41F008860FFF7D8FE85
S31508001D804FF000600449086010BD000000100240D2
S31508001D900000FFF8FFFFF6FE08ED00E008B5012099
S31508001DA0009001226946002000F0DFF80320009029
S31508001DB001226946002000F0D8F808BD38B5044667
S31508001DC00020009002226946204600F0ABF89DF8F4
S31508001DD000009DF8011040EA0125284638BD38B5AF
S31508001DE004460120009001226946132000F09AF863
S31508001DF09DF8000000F0010088B11420FFF7DEFF0F
S31508001E0020801620FFF7DAFF60801820FFF7D6FF3C
S31508001E10A0801A20FFF7D2FFE080012038BD0020FD
S31508001E20FCE72DE9F04107460D461646984600247C
S31508001E3002F03DF9012101EB4701C8B202F071F940
S31508001E4002F054F900BF0DE0701EA04204D1002034
S31508001E5002F00CF9285503E0012002F007F928558D
S31508001E60601CC4B2B442EFDBB8F1010F01D102F035
S31508001E702CF9BDE8F0812DE9F04105460E461746D6
S31508001E809846002402F013F9002141EA4501C8B238
S31508001E9002F047F902F02AF900BF06E0305D02F0C9
S31508001EA040F902F023F9601CC4B2BC42F6DBB8F173
S31508001EB0010F01D102F009F9BDE8F08108B500204B
S31508001EC0009004F0ABF801226946122000F02AF8C7
S31508001ED09DF80000442809D1EB2000F03FF80020C7
S31508001EE000F035F8FFF75AFF012008BD0020FCE78F
S31508001EF038B50446002000900122694600F012F821
S31508001F002CB19DF8000040F01000009004E09DF808
S31508001F10000020F01000009001226946002000F021
S31508001F2024F838BD37B50C4615469DF8000040F034
S31508001F30800000900023012269462920FFF79BFFB5
S31508001F4001232A4621462920FFF76BFF3EBD01B52E
S31508001F50012269460F2000F008F808BD01B50122E4
S31508001F606946104600F001F808BDFEB506460F465C
S31508001F7015460020009001900290002446F080004B
S31508001F808DF80000012405E0601E385C0DF8040099
S31508001F90601CC4B2AC42F7DD681CC2B201236946B4
S31508001FA02920FFF768FFFEBD10B50121880700F05C
S31508001FB0C5F8002845D00121880700F0A4F8214873
S31508001FC00078082802D100201E4908701E480078AB
S31508001FD0B0B91C49097801EB41011C4A02EB8101A1
S31508001FE04868FEF72CFC4FF080418885012115488A
S31508001FF0007803F021FF1348007803F055FE18E037
S315080020001049097801EB4101104A02EB8101486841
S31508002010FEF715FC40F6C4110C1A09078C85002139
S315080020200848007803F008FF06480078401C054970
S3150800203008700548007808B9012000E00020024928
S31508002040087010BD75000020740000205C16002082
S315080020507FB505460C4601210846FFF7A7FBADF8F4
S315080020600850ADF804400020ADF80A00ADF80600A7
S3150800207001A94FF0804000F0D3F800214FF08040CE
S3150800208000F032F801221146900700F068F81C208B
S315080020908DF8000000208DF8010003208DF802005D
S315080020A001208DF803006846FFF736FB01218807F3
S315080020B000F02CF87FBD000010B50121094800F09A
S315080020C03DF870B10121074800F01DF800220121F2
S315080020D0044800F044F80021024800F017F804F01C
S315080020E0BBFB10BD0004004021B1028842F080020B
S315080020F0028004E002884FF67F731A400280704718
S31508002100CA4302827047CA430282704721B10288D5
S3150800211042F00102028004E002884FF6FE731A407C
S31508002120028070471AB183890B43838102E0838951
S315080021308B43838170470146888C704730B50246C9
S31508002140002000230024158A05EA0103958905EA7B
S31508002150010413B10CB1012000E0002030BD1AB112
S3150800216083890B43838102E083898B43838170478C
S3150800217070B5002400220023058C4FF6FE76354004
S315080021800584028C8388048B4FF68F752C40B51E08
S315080021902C400D882C43751E2A400D892A434D88EC
S315080021A02A43144DA8420BD0134DA84208D0134D0C
S315080021B0A84205D0124DA84202D0124DA84213D10A
S315080021C04FF6F7752A404D892A434FF6FB752A4084
S315080021D08D882A434FF6FF652B404FF6FF552B4057
S315080021E08D892B43CD892B4383800483CD888586AF
S315080021F0028470BD002C01400034014000400140BB
S3150800220000440140004801400A460021018B4FF670
S31508002210F7731940114301837047818470470000A2
S31508002220002202881D4B98420ED01D4B98420BD0B7
S31508002230B0F1804F08D01B4B984205D01A4B9842F4
S3150800224002D01A4B984204D14FF68F731A404B8826
S315080022501A43174B984207D0164B984204D04FF6AC
S31508002260FF431A40CB881A4302808B8883850B88E4
S3150800227003850A4B98420BD0094B984208D00E4B5F
S31508002280984205D00D4B984202D00D4B984201D189
S315080022900B7A03860123838270470000002C0140D5
S315080022A0003401400004004000080040000C0040D3
S315080022B00010004000140040004001400044014066
S315080022C00048014010B540F22551424800F0A0F9F7
S315080022D001287CD140F225513E4800F01FF93D48BF
S315080022E000F034FAC4B23C48008800B110BD3C2C5A
S315080022F006D10420394908700020394908801CE0B5
S3150800230036480078C8B9242C03D10120334908700F
S3150800231010E0232C03D10220304908700AE07B2CF8
S3150800232003D103202D49087004E03C2C02D1042077
S315080023302A49087000202A49088029480188008807
S31508002340401C274A1080274844542448007804280B
S3150800235009D13E2C07D10020224912888854012031
S315080023601D4908802BE01D48007801280AD1212C38
S3150800237008D100201B491A4A128888540120164998
S3150800238008801CE01548007802280AD1212C08D1BB
S3150800239000211448124A1288815401200E490880E7
S315080023A00DE00E480078032809D17D2C07D10020BE
S315080023B00C490B4A128888540120074908800848A6
S315080023C00088B0F5806F02DB00200549088000BF51
S315080023D08CE70000003801407600002078000020D5
S315080023E07A000020BC16002010B540F22551454859
S315080023F000F00EF901287DD140F22551414800F040
S315080024008DF8404800F0A2F9C4B221463E4800F0D3
S31508002410A2F93E48008800B110BD3C2C06D1042024
S315080024203B49087000203B4908801CE03848007882
S31508002430C8B9242C03D101203549087010E0232C93
S3150800244003D10220324908700AE07B2C03D103200D
S315080024502F49087004E03C2C02D104202C4908704E
S3150800246000202C4908802B4801880088401C294AEE
S3150800247010802948445426480078042809D13E2C5F
S3150800248007D1002024491288885401201F49088052
S315080024902BE01F48007801280AD1212C08D10020FA
S315080024A01D491C4A128888540120184908801CE0D6
S315080024B01748007802280AD1212C08D1002116488D
S315080024C0144A128881540120104908800DE01048EA
S315080024D00078032809D17D2C07D100200E490D4A22
S315080024E0128888540120094908800A480088B0F5EE
S315080024F0806F00E003E002DB00200649088000BF89
S315080025008AE70000004800400038014076000020B5
S31508002510780000207C000020BC16002010B50022A0
S31508002520002340F66A14A14200D100BF0A12012412
S315080025309440A3B2DC43048010BD10B502460020C7
S31508002540108A4FF2FF0318400B884C8823438C8867
S315080025502343CC8823431843108210BD21B18289B6
S3150800256042F40052828104E082894DF6FF731A40D4
S315080025708281704710B504462048844209D101215A
S315080025808803FFF743F900214FF48040FFF73EF92F
S3150800259032E01B48844209D101214804FFF716F9A5
S315080025A000214FF40030FFF711F925E01548844261
S315080025B009D101218804FFF709F900214FF4802089
S315080025C0FFF704F918E01048844209D10121C8042C
S315080025D0FFF7FCF800214FF40020FFF7F7F80BE0AF
S315080025E00A48844208D101210805FFF7EFF80021BF
S315080025F04FF48010FFF7EAF810BD000000380140DC
S315080026000044004000480040004C00400050004094
S3150800261002460020B1F5007F00D100BF13880B40A9
S315080026200BB1012000E000207047F0B503460024F6
S3150800263000260025002040F66A17B94200D100BFDF
S315080026401846C1F3421401F01F06012707FA06F5DA
S31508002650012C01D10C3004E0022C01D1103000E02D
S3150800266014301AB107682F43076002E00768AF43C2
S315080026700760F0BD2DE9F04786B005460E460024F2
S31508002680A24600BFA1460027B08900B100BF2F4669
S315080026902C8A4CF6FF700440F08804432C82AC89DF
S315080026A04EF6F3100440B08831890843718908430F
S315080026B00443AC81AC8A4FF6FF400440B08904431A
S315080026C0AC8201A8FFF7D8F81F48874202D1DDF887
S315080026D010A001E0DDF80CA0A88900F4004040B184
S315080026E00AEBCA0000EB0A1031684900B0FBF1F8A2
S315080026F007E00AEBCA0000EB0A1031688900B0FB54
S31508002700F1F86420B8FBF0F004012009642101FB0C
S315080027101089A88900F4004040B1322000EBC900B6
S31508002720B0FBF1F000F00700044308E0322000EBAC
S3150800273009106421B0FBF1F000F00F0004432C816E
S3150800274006B0BDE8F08700000038014001468888D9
S31508002750C0F308007047C1F308028280704700BFC3
S31508002760FEE700000FB4054B10B503A9044A02980A
S3150800277000F028FC10BC5DF814FB0000A53F00081B
S315080027801C0100200FB4084B10B504A902AA03982F
S3150800279000F018FC044602A9002000F096FF204627
S315080027A010BC5DF814FB0000CB360008490050EA5F
S315080027B0C12018BF04204A0D18BF40F0010040F29E
S315080027C0FF72B2EB515F08BF40F00200012808BF54
S315080027D0052070472DE9F74F144694B00021C4E947
S315080027E002111599079121F00045C9498D4206DC69
S315080027F01599C4E9000117B00020BDE8F08FC54956
S31508002800DFF814A3A9423CDD0799C44E0029C44F3A
S31508002810C44A1599534619DDFDF7E5FE554506D018
S31508002820C14AC24BFDF7DFFEC4E900010AE04FF0DA
S31508002830D352BE4BFDF7D7FE32463B46FDF7D3FED5
S31508002840C4E9000117B00120BDE8F08FFDF72AFEA4
S31508002850554506D0B44AB54BFDF724FEC4E9000138
S315080028600AE04FF0D352B14BFDF71CFE32463B4609
S31508002870FDF718FEC4E9000117B04FF0FF30BDE8B8
S31508002880F08FAB49A942159978DB21F000418346C0
S315080028908846A84AA84BFDF7ACFE0022A74BFDF7D1
S315080028A001FEFDF7E0FF0990FDF792FF06460F4689
S315080028B09C4A5346FDF79DFE43465A46FDF796FE4B
S315080028C080468A46984A994B30463946FDF791FE26
S315080028D02A0D01250B9242465346FDF787FE032D26
S315080028E0C4E9000139D00B98C1F30A51401A05EB27
S315080028F045111139814230DA9148C346784400EBD4
S315080029000510CDF80CA00C90D0E9002330463946C6
S31508002910FDF76FFE02460B4604910690584603994A
S31508002920FDF761FE80468A4602460B4658460399DD
S31508002930FDF759FE049B069AFDF755FE83460C984B
S3150800294003913946D0E902233046FDF752FE5A462E
S31508002950039BFDF748FE6D1CBDE707980028A2BF3C
S31508002960099817B0BDE8F08F616881F00041616091
S31508002970099817B04042BDE8F08FFFE784461598DE
S31508002980C1F31301C0F30A50A0F2F5304FEA6018FC
S3150800299000F01F06C6F1200013900020069007904D
S315080029A041F4801E05206D4676B1664A08EB0001A3
S315080029B07A4452F8213002EB8101B3404A681399F0
S315080029C022FA01F1194305E05F4908EB0002794450
S315080029D051F82210A1FB0E27A1FB0C131A449A42A8
S315080029E034BF0123002303EB070A05EB8003D3E971
S315080029F001B70F448F4234BF0121002193448B4411
S31508002A0011B1934502D903E0934501D2012100E0B3
S31508002A100021C3E901B7514445F82010011EA0F171
S31508002A200100C1DC0298059F00F10050800F12904A
S31508002A300298DDE903568000FDF7CAFE834628465C
S31508002A400D91FDF7D6FE6FF01D02FEF7EDF8CDE904
S31508002A500E013046FDF7CDFE6FF03D02FEF7E4F8B5
S31508002A6080468A463846FDF7C4FE6FF05D02FEF7DB
S31508002A70DBF80746424653461191FDF713FDDDE99B
S31508002A800E23FDF70FFD5A460D9BFDF70BFD00259E
S31508002A900E465A4628460D9BFDF7A5FDDDE90E2391
S31508002AA0FDF7A1FD42465346FDF79DFD3A46119BAB
S31508002AB0FDF79CFDDFF898A0244A5346FDF799FDDB
S31508002AC007468846234A244B31462846FDF791FD9A
S31508002AD03A464346FDF7E6FC074688464FF0A842C5
S31508002AE0534631462846FDF784FD3A464346FDF7E8
S31508002AF0D9FC159A12F0004F04D0129A81F00041C1
S31508002B0052421292C4E90001129817B0BDE8F08F3C
S31508002B10FB21E93F7CD90240FB21F93F7370032E64
S31508002B208A19A33B000040543163621A61B4D03D50
S31508002B30FB21394183C8C96D305FE43F0000E03F9F
S31508002B4050420000CC410000AE410000182D44540C
S31508002B50FB21F93D3326A611460B113C2DE9FF4D05
S31508002B6021F0004807460C46B8F1795F08DAFDF708
S31508002B707AFE002801BF0020324904B0BDE8F08D76
S31508002B803A46234610461946FDF733FD05460246E2
S31508002B902D480E460B460621784400F05DF82A4675
S31508002BA03346FDF726FDDDE9022382468B46384685
S31508002BB02146FDF71EFD04460F4652465B4628464B
S31508002BC03146FDF716FD22463B46FDF70CFD074646
S31508002BD08A464FF0FF3228463146FEF725F81B4A4B
S31508002BE090450ADA3A465346FDF7FDFC04B0002242
S31508002BF0BDE8F04D134BFDF7F9BC154A4245A8BF91
S31508002C00A8F500154FF00004B8BF124D22462B4612
S31508002C10FDF7E9FC0646884622462B460020094968
S31508002C20FDF7E1FC04460D463A4653463046414612
S31508002C30FDF7D9FC04B022462B46BDE8F04DFDF75A
S31508002C40D5BC00000000F03F843F00003333D33F7B
S31508002C500000E93F0000D23F2DE9F0414F1E00EB8E
S31508002C60C7010446D1E9000115461E4637F006029B
S31508002C700DD02A463346FDF7BCFC7F1E04EBC7037E
S31508002C80D3E90023FDF70EFC37F00602F1D1022F37
S31508002C9025D0042F13D0062F18BFBDE8F0812A4689
S31508002CA03346FDF7A6FCD4E90A23FDF7FBFB2A46C3
S31508002CB03346FDF79EFCD4E90823FDF7F3FB2A46C5
S31508002CC03346FDF796FCD4E90623FDF7EBFB2A46C7
S31508002CD03346FDF78EFCD4E90423FDF7E3FB2A46C9
S31508002CE03346FDF786FCD4E90223FDF7DBFB2A46CB
S31508002CF03346FDF77EFCD4E90023BDE8F041FDF735
S31508002D00D1BB00002DE9FF4D054621F0004084B0F7
S31508002D100C46B0F1795F0BDA2846FFF747FD042821
S31508002D2008BF00F06FF8284608B02146BDE8F08DC8
S31508002D302A460B461046FDF75CFC06460F462A4611
S31508002D402346FDF756FC804626488A4632463B46C9
S31508002D5005217844FFF780FF83461098029160B3F7
S31508002D60214A224B40465146FDF743FCCDE9000176
S31508002D705A4640465146029BFDF73BFC824688462A
S31508002D80DDE906014FF0FF32FDF74EFF5246434696
S31508002D90FDF729FC32463B46FDF72BFCDDE9062309
S31508002DA0FDF721FCDDE90023FDF71DFC08B02A46E6
S31508002DB02346BDE8F04DFDF719BC0B465A4630468A
S31508002DC03946FDF716FC084A084BFDF76BFB4246E9
S31508002DD05346FDF70EFC08B02A462346BDE8F04DDB
S31508002DE0FDF760BBC23E0000495555555555C5BF50
S31508002DF00122FDF719BF0022134610461146FDF7BA
S31508002E006ABC0000024A00201107FDF70DBF00004A
S31508002E1001FDFFFF02E008C8121F08C1002AFAD107
S31508002E2070477047002001E001C1121F002AFBD13C
S31508002E307047000001490860704700002001002023
S31508002E402DE9FF5F82B00021DDE90430020DDDF8CF
S31508002E5040B0034318D044F61050A2F2FF32424362
S31508002E601514119801281FD0A5EB0B00401C5FEA2A
S31508002E70000A4FF000064E4FDFF83891B04650462C
S31508002E8015D5CAF1000413E0119801244AA30128B4
S31508002E9001D16FEA0B010298119AC0E90031C0E925
S31508002EA0024206B0BDE8F09FCBF10000DFE704461A
S31508002EB00021404A491842EB0450CDE9001012E0BF
S31508002EC0E00707D032463B4640464946FDF791FBA8
S31508002ED08046894632463B4610461946FDF789FB29
S31508002EE006460F466410002CEAD1DDE90401DDE947
S31508002EF00023BAF1000F06DAFDF77BFB42464B4684
S31508002F00FDF777FB05E0FDF7E6FB42464B46FDF786
S31508002F10E2FB04460E460022284BFDF7EFFC03D8D9
S31508002F204FF0FF30014607E00022254B2046314688
S31508002F30FDF7B8FAFDF7E0FE102409E0002C0ADBDD
S31508002F400A220023FDF738FD039B30321A55641E0A
S31508002F5050EA0102F2D1641C039AC4F11103144425
S31508002F60119A012A03D0012208430DD10AE0084329
S31508002F7004D000204FF0110B119072E7A3EB0B055C
S31508002F806D1E0DE05B4504DD4FF0000205F10105FD
S31508002F9004E003DA4FF00002A5F10105002AECD09F
S31508002FA002981199C0E90231C0E9004579E70000A5
S31508002FB0000014400000F03F300000000000F0431D
S31508002FC00000E03F2DE9FF4F95B09A468846064631
S31508002FD00025EEE1252877D100242746F94A012164
S31508002FE0039400E0044316F8013F203B01FA03F07E
S31508002FF01042F7D130782A2811D06FF02F03307895
S31508003000A0F13002092A16D8039A44F0020402EB0A
S31508003010820203EB42021044761C0390EFE758F84D
S31508003020042B0392002A03DA504244F40054039016
S3150800303044F00204761C30782E2816D116F8010FB3
S3150800304044F004042A280DD06FF02F023078A0F13E
S315080030503003092B09D807EB870302EB4303C7188C
S31508003060761CF3E758F8047B761C30786C280FD06A
S3150800307006DC4C2817D068280DD06A2814D104E03D
S31508003080742810D07A280FD10DE044F400140AE011
S3150800309044F4801401E044F440147278824202D168
S315080030A004F58014761C761C307866280BD013DC61
S315080030B0582877D009DC002875D04528F6D0462848
S315080030C0F4D047281AD193E118E0632835D064284C
S315080030D079D0652812D18BE1702873D008DC67286F
S315080030E0F1D069286FD06E280DD06F2806D1ACE0D4
S315080030F073282CD0752874D0782853D0524617993F
S3150800310090476D1C54E1C4F30250022809D00328E5
S315080031100DD0D8F8001004280DD00D6008F1040869
S3150800312046E1D8F80010EA17C1E90052F6E7D8F8E0
S3150800313000100D80F2E70D70F0E718F8041B8DF803
S31508003140001000208DF80100EB46012003E058F836
S3150800315004BB4FF0FF3061074FF0000102D40DE0C9
S3150800316009F101018946B9420FDA8145F8DB1BF8F6
S3150800317009100029F4D108E009F1010189468142C4
S31508003180FADB1BF809100029F6D103985346A0EB81
S31508003190090721463846179A00F080FA284400EBBA
S315080031A0090507E044E008E10DE01BF8010B52466B
S315080031B017999047B9F10109F7D25346214638467F
S315080031C0179AF2E039E00A21C4F302524FF0000BD5
S315080031D00091022A06D058F8040BC117032A09D011
S315080031E00AE023E008F1070020F00702F2E80201EE
S315080031F0904605E000B2C117042A01D140B2C117B2
S31508003200002906DA0A460021404261EB02012D2216
S3150800321002E0220504D52B228DF80420012203E0C2
S31508003220E20701D02022F7E7914657E00A2100E09D
S3150800323010214FF0000B00910BE010214FF0000B0E
S3150800324044F004040827009103E008204FF0000B1F
S315080032500090C4F30252022A05D058F8040B002144
S31508003260032A08D008E008F1070020F00702F2E870
S315080032700201904603E080B2042A00D1C0B24FF0A2
S31508003280000922072AD53278702A07D0DDF800C04F
S315080032908CF0100C5CEA0B0C05D00EE040228DF881
S315080032A00420012208E050EA010306D030238DF8F5
S315080032B004308DF8052002229146009B83F008030E
S315080032C053EA0B030AD150EA010201D1620705D578
S315080032D030228DF804204FF001097F1E3278582AD3
S315080032E004D039A20C920CAA02920BE03BA2F9E791
S315080032F05B46009AFDF760FB0C9B9B5C029A521E8C
S315080033000292137050EA0102F2D1029804A9081A2F
S3150800331000F1200B600702D524F4803400E0012771
S315080033205F4502DDA7EB0B0000E0002000EB0B0178
S31508003330009003984944401A0390E00306D4534684
S315080033402146179A039800F0A9F90544002706E0D4
S3150800335001A85246C05D179990476D1C7F1C4F45C2
S31508003360F6DBE0030CD553462146179A039800F07E
S3150800337095F9054404E030205246179990476D1C8C
S315080033800099481E00900029F5DC08E00298029989
S3150800339052460078491C0291179990476D1CBBF15B
S315080033A00001ABF1010BF1DC5BE100F065F90544C6
S315080033B0761C307800287FF40DAE19B02846BDE893
S315080033C0F08F0000092801003031323334353637A2
S315080033D03839616263646566000000003031323353
S315080033E034353637383941424344454600000000F3
S315080033F0600700D4062708F1070020F00700F0E868
S315080034000223804603F0004C5FEA0C0001D097A027
S3150800341009E0200501D596A005E0E00701D095A0B2
S3150800342001E0AFF24C001390307823F00043652892
S315080034300CD006DC452809D046281DD047287FD160
S315080034403BE0662818D067287AD136E00021112F8C
S3150800345001DB112000E0781CCDE9000104A90CA8C5
S31508003460FFF7EEFCDDE90D010C9A4FF0000B07F1B2
S315080034700109109200914EE04FF000400097CDE907
S31508003480011004A90CA8FFF7DBFCDDE90D020C9B73
S315080034900F994FF0000B91461093009211B9791CC1
S315080034A000EB0109B7EB090003D4C0F1FF3B07F1B4
S315080034B00109A9EB0700019042E0012F00DA012774
S315080034C00021112F01DD112000E03846CDE9000169
S315080034D004A90CA8FFF7B4FCDDE90D010C9A0091CC
S315080034E04FF0000BB946109221070FD4009A4A45AF
S315080034F003DA914601E0A9F10109B9F1010F05DDE9
S31508003500109AA9F10101515C3029F4D0B84202DAC7
S3150800351010F1040F03DA0121CDE9011010E00028AB
S3150800352003DC8344A9EB000102E0411C494500DDA8
S315080035308946A0EB0B00401C01904FF0004002901A
S31508003540200705D40198484502DB4FF0FF3001906B
S3150800355000208DF84B0002980DF14B07B0F1004F93
S3150800356025D002200C902B200D90029800280CDA0A
S31508003570404202902D200D9007E00A210298FDF79F
S3150800358005FA3031029007F8011D0C99481E0C9077
S315080035900029F2DC02980028EFD1791E0D980870F0
S315080035A0307800F0200040F0450007F8020D11A819
S315080035B0C01BC01D02901398007800B1012000EBD3
S315080035C00901019801EBE071029801440398401A39
S315080035D0401E0390E00306D453462146179A0398E3
S315080035E000F05CF805441398007818B1524617990C
S315080035F090476D1CE00323D553462146179A039836
S3150800360000F04CF805441BE0BBF1000F07DB0098FF
S31508003610584504DD1098179910F80B0001E0179922
S3150800362030205246904701980BF1010B401E05F1D8
S315080036300105019004D12E205246179990476D1C1A
S31508003640B9F10001A9F10109DEDC05E017F8010B63
S315080036505246179990476D1C0299481E02900029F8
S31508003660F4DC53462146179A03989EE62D0000007F
S315080036702B000000200000002DE9F041044600253B
S315080036801E461746880404D405E039462020B0476C
S315080036906D1C641EF9D52846BDE8F0812DE9F04178
S315080036A0044600251E469046C80301D5302700E08B
S315080036B02027880404D505E041463846B0476D1CE6
S315080036C0641EF9D52846BDE8F0810A68531C0B60CC
S315080036D01070704710B5044600212046FDF74CF9D6
S315080036E001D2204610BD84F00040FBE72DE9F04DDD
S315080036F00546DFF8388221F000408D4F82B00C462F
S31508003700404520DBA0EB080129430BD089498842B4
S3150800371001DC10D17DB102B028462146BDE8F04D46
S31508003720FFF766BB002CC7BF002001468248394612
S3150800373002B0BDE8F08D0120FFF77CFB02B0BDE8C2
S31508003740F04DFFF758BB7D49884244DA7C498142EF
S31508003750A1BF79487B4902B0BDE8F08D2A462346C9
S3150800376010461946FCF745FF8346024676480E463C
S315080037700B4606217844FFF76FFA5A463346FCF79C
S3150800378038FF074671488A465A4633460421784424
S31508003790FFF762FA5A463346FCF72BFF00224346E8
S315080037A0FCF780FE02460B4638465146FCF793FF67
S315080037B02A462346FCF71DFF654A664BFCF716FFAB
S315080037C02A462346FCF712FF02B05B4ABDE8F04DD5
S315080037D05C4BFCF70BBF002C4FF000024BDA464659
S315080037E0434628462146FCF75DFE4FF0FF32FDF7BB
S315080037F01BFA0446024658480D460B4606217844ED
S31508003800FFF72AFA22462B46FCF7F3FE8046534872
S315080038108A4622462B4604217844FFF71DFA22469B
S315080038202B46FCF7E6FE00223346FCF73BFE06462F
S315080038308B462046294602F0D3FD04460D463246FD
S315080038405B4640465146FCF746FF22462B46FCF7A8
S31508003850D0FE3F4A3F4BFCF7C6FE22462B46FCF7F6
S3150800386021FE0122FDF7E0F902B03B46BDE8F04D26
S31508003870314AFCF7BBBE2D4B28462146FCF7B6FE5F
S315080038804FF0FF32FDF7D0F905460E4602F0A8FDC7
S3150800389000270C4680463A460B46FCF703FE82464E
S315080038A08B463A46234610461946FCF7A2FE2A4698
S315080038B03346FCF79BFE52465B46FCF70CFF8246F6
S315080038C027488B462A46334606217844FFF7C4F92B
S315080038D02A463346FCF78DFECDE9000121482A46E3
S315080038E0334604217844FFF7B7F92A463346FCF7EE
S315080038F080FE00220D4BFCF7D5FD02460B46DDE99E
S315080039000001FCF7E8FE42462346FCF772FE5246E3
S315080039105B46FCF7C7FD3A462346FCF7C3FD02B0F3
S315080039200122BDE8F04DFDF77FB900000000F03F29
S31508003930FB2109400000F07F182D44540000E03FA9
S315080039400000603CFB21F93FC0320000D63200007F
S31508003950075C143326A6913C363200004C32000030
S315080039606A3100008031000010B500F063FF00F0F6
S3150800397057FA4FF400510448FDF776FE2021024815
S31508003980FDF770FE10BD0000000C014010B501F0F7
S315080039902DF80D490968401AB0F57A7F00D210BD96
S315080039A001F024F8084908604FF400510748FDF76C
S315080039B050FEC0F10100C4B222464FF4005103483C
S315080039C0FDF754FE00BFEAE780000020000C014026
S315080039D010B501F06DFF10BD10B501F007F81349D9
S315080039E00968401A322800D210BD00F0FFFF0F49BF
S315080039F0086001F0DBFF0E4800780E49C978884256
S31508003A0005D10B4840780B49097988420BD00948FB
S31508003A104178C01C01F0CAFD0648C0780449087000
S31508003A2004480079487000BFDEE70000080100205E
S31508003A30040100205016002010B55A2002F0A6FEF8
S31508003A40032002F059FFFDF733FBFDF7E3FBFDF713
S31508003A5013FC02F029FE472147F2305002F00CFD14
S31508003A60FEF72CFA18B104A0FEF77CFE02E008A0C7
S31508003A70FEF778FE10BD0000544353333437323511
S31508003A805F496E697420737563636565640D0A0022
S31508003A9054435333343732355F496E69742066614F
S31508003AA0696C0D0A0000000010B51C48007800B9C2
S31508003AB010BD1B48007808B319480078012802D1C0
S31508003AC0FDF7ECFB1AE016480078022802D1FDF74C
S31508003AD023FB13E012480078042802D1FDF7ACFB5B
S31508003AE00CE00F480078052802D1FDF773FB05E0C6
S31508003AF00B480078062801D1FDF7ECFA094800784A
S31508003B0007490978884206D00548007805490870AB
S31508003B1001200249087000BFCAE7000031000020F2
S31508003B20300000201401002010B5002419E02021DF
S31508003B300D48FDF799FD4FF400510B48FDF792FD2E
S31508003B40642000F0EBF920210748FDF78BFD4FF4C0
S31508003B5000510548FDF788FD642000F0DFF9601C78
S31508003B60C4B2032CE3DB10BD000C014010B54FF4C2
S31508003B70E13002F099FC4FF4E13002F00FFD02A0AB
S31508003B80FEF7F0FD10BD000075617274315F696E55
S31508003B90697420737563636565640D0A0000000027
S31508003BA010B51448008818B313480078012803D1C3
S31508003BB0124801F0B5F916E00F480078022803D13B
S31508003BC00E4800F087FF0EE00B480078032803D163
S31508003BD00A4800F07FFF06E007480078042802D16B
S31508003BE0064801F071FF0020034908700149088062
S31508003BF010BD00007600002078000020BC160020CA
S31508003C002DE9F84F04460D4621F00040009173490E
S31508003C10814211DC7249884201DC06D12CB120466A
S31508003C202946BDE8F84FFFF7E3B86E48002DCCBF2C
S31508003C306D496E49BDE8F88F6D49814211DD6D49C0
S31508003C408142D8BF4FF0FF366DDD20462946FEF784
S31508003C50ADFD042808BFFFF7D5F820462946BDE87C
S31508003C60F88F6549654F25F00045814233DD644983
S31508003C70814219DD002632464FF080432046294608
S31508003C80FCF710FC80468A46012220462946FCF7A6
S31508003C90CBFF00223B46FCF7A6FC42465346FCF700
S31508003CA01AFD04460D463EE001260022BA463B466A
S31508003CB020462946FCF7F6FB80460F460022534667
S31508003CC020462946FCF78FFC42463B46FCF703FD97
S31508003CD004460D4627E04B4981421BDDDFF828A143
S31508003CE002260022534620462946FCF782FC00227B
S31508003CF03B46FCF7D7FB80460F4600225346204634
S31508003D002946FCF770FC42463B46FCF7E4FC0446B1
S31508003D100D4608E0032622462B4600203B49FCF7C1
S31508003D20DAFC04460D4622462B4610461946FCF791
S31508003D3060FC8B46824602460B46FCF75AFC074651
S31508003D400246334888460B4606217844FEF784FF28
S31508003D5052465B46FCF74DFC82462E488B463A4651
S31508003D60434605217844FEF777FF3A464346FCF773
S31508003D7040FC02460B46002E504659460CDAFCF724
S31508003D8091FB22462B46FCF734FC01B022462B4613
S31508003D90BDE8F04FFCF72ABCFCF784FB22462B460D
S31508003DA0FCF727FC1C4A7A4402EBC603D3E9002336
S31508003DB0FCF719FC22462B46FCF715FC174A7A44F1
S31508003DC002EBC603D3E90023FCF710FC009A002A8D
S31508003DD0B8BF81F00041BDE8F88F0000000010442C
S31508003DE00000F07F182D4454FB21F93FFB21F9BF51
S31508003DF00000DC3F0000203E0000F33F0000F03FDB
S31508003E000000E63F008003400000F83F0000F0BFD6
S31508003E10A22D0000602D0000FE2C0000C62C00001C
S31508003E2008B501210820FDF7E1FC2020ADF80000C7
S31508003E3010208DF8030003208DF802006946024819
S31508003E40FDF72AFB08BD0000000C014070B50546C9
S31508003E500C4600260EE020210848FDF705FCA0B216
S31508003E6000F05CF820210548FDF7FCFBA0B200F045
S31508003E7055F8761CAE42EEDB70BD0000000C014022
S31508003E8000B5244B21F0004287B09A42DCBF0022DD
S31508003E90134629DD204B9A4208D140B94FF001005C
S31508003EA0FEF7C8FFFEF7A7FF07B000BD03DBFEF766
S31508003EB09FFF07B000BD02AAFEF78CFC10F00301B5
S31508003EC004BF0DF1080C9CE80F000DD00120012954
S31508003ED00ED0022914D00DF1080C00909CE80F00B2
S31508003EE0FEF710FF07B000BDFEF738FE07B000BDAD
S31508003EF00DF1080C00909CE80F00FEF703FF05E0A3
S31508003F000DF1080C9CE80F00FEF728FE07B081F0BB
S31508003F10004100BDFB21E93F0000F07F70B5044673
S31508003F2000F064FD054608E000F060FDA84204D2F2
S31508003F30C5F1FF30201A84B2002500F057FD401B5A
S31508003F40A042F1D370BD002106E00A2100BF0A1E77
S31508003F50A1F1010399B2FAD1021EA0F1010398B2A8
S31508003F60F3D1704710B50446012002F013F94FF457
S31508003F7080610A48FCF7F1F821024FF4807207487D
S31508003F8002F038F9054800F01BF8054908600348AF
S31508003F9000F0A0FD002002F0FDF810BDBC160020C0
S31508003FA05000002000BF054A128802F04002002A8D
S31508003FB0F9D0C2B2014B1B1D1A8070470038014068
S31508003FC070B5024600210020002323E0545C542CDF
S31508003FD01ED14C1C145D303C4FF47A756C438D1C15
S31508003FE0555D303D05EBC50606EB051504EB850565
S31508003FF0CC1C145D303C04EB840405EB44050C1D15
S31508004000145D303C2B19834200DD1846091D01E07A
S31508004010491C00BF545C002CD8D170BD10B5FDF703
S3150800402035FBFDF743FB00F009F8FDF727FB00F029
S3150800403005F8FDF72BFBFDF731FB10BD10B5032482
S3150800404001E000F04EF8601EC0B2041EF9D110BDA2
S3150800405010B5FDF71BFBFDF721FBFFF7EFFFFDF79B
S315080040600DFBFFF7EBFFFDF711FB10BD70B505461D
S315080040700026002400BF10E0FDF708FBFFF7DEFF6F
S31508004080FDF7FCFA6006040EFDF718FB08B1601C84
S31508004090C4B2FFF7D3FF701CC6B2082EECDB15B905
S315080040A0FFF7D6FF01E0FFF7B9FF204670BD10B550
S315080040B0FDF7F4FAFDF7E2FAFFF7C0FFFDF7F6FAA7
S315080040C0FFF7BCFFFDF7E2FA10BD10B5FDF7EEFAF3
S315080040D0FDF7D4FAFFF7B2FFFDF7E0FAFFF7AEFFF8
S315080040E010BD10B50520FFF72EFF10BD10B5002432
S315080040F0FDF7C4FAFDF7D2FAFFF7A0FF09E0601C46
S3150800410084B2FFF7EEFF642C03DDFFF7DEFF012024
S3150800411010BDFDF7D3FA0028F1D1FDF7B7FA002054
S31508004120F6E770B504460025FDF7B0FA00BF16E0BD
S3150800413004F08000002802DDFDF7B0FA01E0FDF783
S31508004140B5FA6006040EFFF779FFFDF797FAFFF751
S3150800415075FFFDF79BFAFFF771FF681CC5B2082DBE
S31508004160E6DB70BD02680B6803600A6070470000F2
S315080041700FB59DB0FE491D98FCF724F91D90FC4922
S315080041801E98FCF71FF91E90F9491F98FCF71AF9B3
S315080041901F902298006817902298406816902298D7
S315080041A0806815902298C068149000211D98FCF725
S315080041B0D9FB02D1002018901BE0DDE91D01FCF7B0
S315080041C033F90790FCF76EFBCDE90801FFF718FDF8
S315080041D00022E84BCDE90A01FCF70BFAE64AE74B61
S315080041E0CDE90C01FCF777FACDE90E01FCF79EFB49
S315080041F018901E990846FCF7E5F80A901D99084696
S31508004200FCF7E0F809900A99FCF784F80B90FCF79C
S3150800421049FBCDE90C0102F0E3F8CDE90E01FCF704
S3150800422085FB1E902098FCF73DFBD34AD34BCDE97E
S315080042300001FCF7DEF90022CE4BCDE90201FCF7BE
S315080042404AFACDE90401FFF71BFECDE908011498E7
S31508004250FCF728FBCDE90601DDE90823FCF7C9F9D7
S31508004260CDE90C011E98FCF71DFBCDE90A01DDE935
S315080042700C23FCF7B8F9CDE90E01FCF757FB1E90A5
S315080042802098FCF70FFBBC4ABC4BCDE90001FCF7B4
S31508004290B0F90022B74BCDE90201FCF71CFACDE9CB
S315080042A0040101F06BFECDE908011498FCF7FAFA4F
S315080042B0CDE90601DDE90823FCF79BF9CDE90C01F8
S315080042C017991F98FCF778F80990FCF7EBFACDE9EF
S315080042D00A01DDE90C23FCF786F9CDE90E01FCF7A6
S315080042E025FB1F90179880F000400F901F99FCF748
S315080042F043FB02D2012021B000BDDDE91510FCF711
S3150800430009F80B90FCF7CEFACDE90E011F9908467D
S31508004310FCF758F808901E990846FCF753F80790DA
S315080043200899FBF7F7FF0990FCF7BCFACDE90A01F3
S3150800433002F056F8CDE90C01DDE90E23FCF7DEFAAA
S3150800434001D20220D7E71F990846FCF73BF80490EC
S315080043501E990846FCF736F803900499FBF7DAFF2E
S315080043600590FCF79FFACDE9060102F039F8CDE988
S315080043700A011E98FCF796FACDE90801DDE90A2339
S31508004380FCF7A9F9CDE90C01FFF7B0F9CDE90E0163
S31508004390FCF7CCFA11901F990846FCF713F802901F
S315080043A01E990846FCF70EF801900299FBF7B2FF32
S315080043B00390FCF777FACDE9040102F011F8CDE98C
S315080043C008014FF080401699FBF7FCFF0590FCF7B3
S315080043D069FACDE90601DDE90823FCF70AF9CDE912
S315080043E00C0115990846FBF7EDFF08901699084643
S315080043F0FBF7E8FF06901F990846FBF7E3FF0490D2
S315080044001E990846FBF7DEFF03900499FBF782FF27
S3150800441005900699FBF77EFF07900899FBF7CCFFF6
S315080044200990FCF73FFACDE90A01DDE90C23FCF710
S3150800443052F9CDE90E01FCF779FA12904FF07E5148
S315080044401298FCF799FA04D34D491298FCF78AFAA0
S3150800445001D205204FE700211F98FCF783FA02D204
S315080044604748109002E04FF07E5010901298FCF7E3
S3150800447019FACDE90801FFF739F9CDE90C01DDE9AB
S315080044801010FBF79FFF0990FCF70CFACDE90A011B
S31508004490DDE90C23FCF706F8CDE90E01FCF746FA30
S315080044A019901998FCF7FEF90022324BCDE90A015A
S315080044B0FCF79FF8304A314BCDE90C01FCF70BF9B4
S315080044C0CDE90E01FCF732FA19901998FCF7EAF9CA
S315080044D00022284BCDE90E01FCF710FA09D31998EA
S315080044E0FCF7E0F900221346CDE90E01FCF7EEF9D8
S315080044F001D20620FFE64FF080401699FBF762FFCF
S315080045000D901599FBF75EFF0F9015990846FBF776
S3150800451059FF0D9016990846FBF754FF0B901F9903
S315080045200846FBF74FFF09901E990846FBF74AFF16
S3150800453008900999FBF7EEFE0A900B99FBF73CFFEA
S315080045400C900D99FBF738FF80F000400E900F99FC
S31508004550FBF76AFF13904FF07E511398FCF70CFA9D
S3150800456004D307491398FCF7FDF90BD20320C2E6DA
S3150800457000002041008066404AD8124DFB210940C0
S31508004580000080BF1398FCF78DF9CDE90C01FFF701
S31508004590ADF8CDE90E01FCF7C9F91A901A98FCF79F
S315080045A081F900226F4BCDE90801FCF722F86E4A23
S315080045B06E4BCDE90A01FCF78EF80022694BCDE96E
S315080045C00C01FCF713F8CDE90E01FCF7AFF91A90C8
S315080045D01A98FCF767F90022654BCDE90E01FCF73E
S315080045E08DF909D31A98FCF75DF90022614BCDE9DC
S315080045F00E01FCF76BF901D204207CE61999209884
S31508004600FBF7DAFE0F901A99FBF784FE1B901B98AE
S31508004610FCF748F90022584BCDE90E01FCF76EF974
S3150800462009D31B98FCF73EF90022544BCDE90E013D
S31508004630FCF74CF901D207205DE622991898086123
S315080046404F491998FBF7B8FE0146229841611A9915
S31508004650229881611B992298C16122980069059068
S31508004660FCF720F90022474BCDE90601FBF7C1FF0D
S315080046700022454BCDE90801FCF72DF80022434BF3
S31508004680CDE90A01FBF7B2FFCDE90C01FCF7EBF81F
S315080046900F90FCF78FF822990864229840690590D4
S315080046A0FCF700F90022374BCDE90601FBF7A1FF1D
S315080046B00022354BCDE90801FCF70DF80022334BF3
S315080046C0CDE90A01FBF7EEFECDE90C01FCF7CBF8C4
S315080046D00F90FCF76FF8014622984164229880698A
S315080046E00590FCF7DFF80022264BCDE90601FBF71B
S315080046F080FF0022244BCDE90801FBF7ECFF0022DE
S31508004700224BCDE90A01FBF7CDFECDE90C01FCF7FA
S31508004710AAF80F90FCF74EF8014622988164229871
S31508004720C0690590FCF7BEF80022164BCDE90601D4
S31508004730FBF75FFF0022144BCDE90801FBF7CBFF1F
S315080047400022124BCDE90A01FBF750FFCDE90C0117
S31508004750FCF789F80F90FCF72DF801462298C164FA
S315080047600020C8E5008066404AD8124DFB21094062
S3150800477000E0604000E060C000805640008056C0FF
S315080047800000B44200409F4000E07040007097402F
S315080047902DE9FC5F81460E4692461F464FF00008FB
S315080047A0C34600213046FCF7DDF802D20020BDE8FA
S315080047B0FC9F4FF0000B002412E02046FBF7FAFF9F
S315080047C001901B480090524631464846019BFFF728
S315080047D0CFFC20B9444500DAA0464FF0010B641E11
S315080047E014F1870FE9DABBF1000F1ED04046FBF73C
S315080047F0E1FF01900E480090524631464846019B1B
S31508004800FFF7B6FC00250CE00949403151F82500B0
S31508004810FBF7FCFF3A4601460190284601F042FBA9
S315080048206D1C042DF0DB0120C1E70020BFE7000066
S31508004830F815002008B501210820FCF7D7FF4FF42A
S315080048400050ADF8000010208DF8030003208DF805
S31508004850020069460148FCF71FFE08BD000C01402E
S3150800486010B53348007800285CD100F0BFF8002165
S31508004870304AD2E90032C31A61EB02012E480068B9
S315080048800022C01A8A4150DA00F0B0F80021294AFD
S3150800489003C22A48006848B12948006830B901208F
S315080048A02349087027A001F06DFE10BD284800684E
S315080048B0FFF758FB2748006827490968884218DA2D
S315080048C0234800682449096888420CD121480068B1
S315080048D01F4908601948006820B119480068401E39
S315080048E017490860E1E71A480068401C184908603B
S315080048F01BE0174800681849096888420CD1154812
S315080049000068134908600D48006820B10C48006823
S31508004910401E0B490860C8E70D480068401E0C4950
S31508004920086002E00A200449086000BFBDE70000ED
S3150800493031000020580000205000002044000020CC
S31508004940380000204047726F7570446F6E6521000D
S31508004950340000203C0000204000002010B50B4821
S315080049600078012808D000F041F809490968401A7A
S3150800497008490968884208D900200449087000F0E7
S3150800498035F80349086001F089F810BD4800002091
S315080049904C0000206000002001F046F8FDF79EF963
S315080049A0FDF7BAF801F0EAF9472144F62060FDF769
S315080049B04FFB01F095FBFEF7D7FFFFF7D7F8FFF798
S315080049C007F8FFF739F800F017F862B6FFF7ACF802
S315080049D00BE0FEF7DBFFFFF7E3F8FEF7FDFFFFF757
S315080049E03FFFFFF7BBFFFFF75FF8F2E701480068F4
S315080049F0704700007000002010B50024012001F067
S31508004A00C9FBC0222F49304801F0F4FB2E48006844
S31508004A102E49884204D008462B4908600020486081
S31508004A202948D0F8AC0025280ED0002406E000213D
S31508004A3025488C3040F82410601CC4B2082CF6DBDC
S31508004A4025212148C0F8AC1000240BE01E488C3004
S31508004A5050F8240000F2DC510022204601F022FA28
S31508004A60601CC4B2082CF1DB002001F093FB164849
S31508004A7090F88800252824D1134908311448FBF7F3
S31508004A807EFB1148007A242804D10F48083000F02C
S31508004A9047FA16E010240CE030200D49085530215D
S31508004AA00B4A601C1154A01C1154E01C11540C3004
S31508004AB0C4B20748FBF75CFBA042EDD8044800F0F7
S31508004AC009F810BD00F07F0038150020E1EE33012B
S31508004AD0BC1600202DE9F04F89B005460026284669
S31508004AE001F088FF287823287ED128795028FBD121
S31508004AF0687953287DD1A87943287AD1E8794B2853
S31508004B0077D1287B212874D16878303864214843C6
S31508004B10A978303901EB810100EB4101E87830389A
S31508004B20084484B2687A303864214843A97A30390F
S31508004B3001EB810100EB4101E87A30380F1817F5CF
S31508004B40FA7F53DBB7F5FA7F50DC082C4EDA287A61
S31508004B502B2803D0287A2D2800D17F423846FBF728
S31508004B6029FEE549079051F82400FBF723FE069035
S31508004B7004EB4400E14A02EB800041680698FBF723
S31508004B801EFC83460799FBF7C5FB8246DA4840F8C0
S31508004B902470DB495046FBF7EFFE02D2DFF860A32C
S31508004BA006E0D8495046FBF7DDFE01D2DFF854A3EC
S31508004BB05046FBF744FE04EB4401D04A22F8210094
S31508004BC004EB4400114601EB8000C0F804A0002065
S31508004BD004EB440102EB81018860FFF707FFCA492D
S31508004BE008600120C94900E003E0087009B0BDE883
S31508004BF0F08F287823284ED1287950284BD1687908
S31508004C00442848D1A879532845D1E879542842D16F
S31508004C10287A21283FD16878303864214843A97812
S31508004C20303901EB810100EB4101E878303808445E
S31508004C3084B2082C13DA002004EB4401AF4A02EBD5
S31508004C408101886004EB440102EB81014868FBF7A7
S31508004C50F6FD04EB4401A94A22F821001AE0FF2CCC
S31508004C6018D1002414E0002004EB4401A34A02EB07
S31508004C708101886004EB440102EB81014868FBF777
S31508004C80DEFD04EB44019D4A22F82100601C84B233
S31508004C90082CE8DBAAE729E1A85D232813D100241C
S31508004CA0701C86B208E0A85D04EB840100EB4100A5
S31508004CB0303884B2701C86B2A85D0028EBD0A85D97
S31508004CC05028E8D0EFE7A85D50281ED14FF000091C
S31508004CD0701C86B212E0A85DFBF775FD8C4907903B
S31508004CE04846FBF76FFB06900799FBF713FB8346CD
S31508004CF08849FBF761FB8146701C86B2A85D0028CF
S31508004D00C9D0A85D5428C6D0E5E7A85D54287DD14A
S31508004D104FF00008701C86B209E0A85D08EB880110
S31508004D2000EB410030381FFA80F8701C86B2A85D87
S31508004D3010B1A85D2128F0D1082C3DDA76494846FD
S31508004D40FBF710FE7DD86F494846FBF715FE78D865
S31508004D5042F21070804574DC674951F82400FBF76D
S31508004D6029FD83464946FBF7D5FA814664494846F4
S31508004D70FBF702FE01D2DFF8889162494846FBF745
S31508004D80F1FD01D2DFF87C91B8F1140F15DA484627
S31508004D90FBF755FD04EB4401584A22F8210004EBC1
S31508004DA04400114601EB8000C0F80490002004EB93
S31508004DB0440102EB8101886043E04846FBF73FFD6A
S31508004DC004EB44014D4A22F8210004EB4400114645
S31508004DD001EB8000A0F8028004EB440201EB82019B
S31508004DE04888FBF706FD00224C4BCDE90001FBF78E
S31508004DF072FCCDE9040104EB4401404A32F8210073
S31508004E00FBF7E1FC019004EB440000E06CE03B4A50
S31508004E1002EB800041680198FBF7CEFA8346FBF760
S31508004E2041FDCDE90201DDE90423FBF754FCCDE998
S31508004E300601FBF77BFD04EB4401304A02EB8101D6
S31508004E408860FF2C52D100244BE02B4951F82410DE
S31508004E5001F2DC50FBF7AEFC81464846FBF7EFFC57
S31508004E6004EB4401254A22F8210004EB44001146CC
S31508004E7001EB8000A0F8028004EB440102EB8101FB
S31508004E804888FBF7B6FC0022244BCDE90001FBF766
S31508004E9022FCCDE9040104EB4401184A32F821004A
S31508004EA0FBF791FC019004EB4400144A02EB8000E6
S31508004EB041680198FBF780FA8346FBF7F3FCCDE9D6
S31508004EC00201DDE90423FBF706FCCDE90601FBF741
S31508004ED02DFD04EB4401094A02EB81018860601C40
S31508004EE084B2082C02DAB0E7701C86B2A85D0028E6
S31508004EF07FF4D2AE00BF79E6C41500205C16002008
S31508004F0000101C450000FA434C0000204800002011
S31508004F10000020410000404200401C45000034408B
S31508004F202DE9F14F88B0FBA1089801F07FFA824677
S31508004F30BAF1000F03D0F9A001F024FB0AE3FAA1A5
S31508004F40089801F073FA8246BAF1000F24D00120BE
S31508004F50F74908704FF0000B14E000200BEB4B01EB
S31508004F60F44A02EB810188600BEB4B0102EB8101ED
S31508004F704868FBF764FC0BEB4B01EE4A22F821006C
S31508004F800BF1010BBBF1080FE7DBEBA001F032FDDB
S31508004F90FF20EC490870DDE2EBA1089801F046FA1B
S31508004FA08246BAF1000F2AD006AAE9A10898FBF7AB
S31508004FB0EFF80028C2D00020069901EB4101DD4A2E
S31508004FC002EB81018860069901EB410102EB810140
S31508004FD04868FBF734FC069901EB4101D54A22F8EB
S31508004FE02100DEA1E148069AFDF7CCFBDF4801F077
S31508004FF001FD4FF48061DD48FBF7AFF8AAE2DCA1BA
S31508005000089801F013FA8246BAF1000F02D001F0AF
S315080050101FF89FE2D8A1089801F008FA8246BAF16B
S31508005020000F0CD004AB05AAD5A10898FBF7B0F879
S315080050300028B0D0DDE9041000F00CFC8AE2D3A108
S31508005040089801F0F3F98246BAF1000F0DD005AAC7
S31508005050D0A10898FBF79CF800289CD00120B449F9
S3150800506008700598FEF77EFF74E2CDA1089801F056
S31508005070DDF98246BAF1000F23D0CB48CB4BCC4A98
S31508005080CCA100900898FBF783F80028B6D0012039
S31508005090A7490870C6480068C449096888420BD001
S315080050A0C3480068C7490860BF480068C649086021
S315080050B000209F4908704DE2BD480068FEF752FF80
S315080050C048E2C2A1089801F0B1F98246BAF1000F88
S315080050D050D0C0A001F08EFCFF209A4908704FF00E
S315080050E0000B43E0C04830F82B0000F2DC500BEB15
S315080050F04B01904A22F821004FF4FA600BEB4B0162
S3150800510002EB810148800BEB4B0102EB81014888D9
S31508005110FBF76FFB06460022B44BFBF7DCFA80462A
S3150800512089460BEB4B01834A32F82100FBF74BFB10
S3150800513007460BEB4B007F4A02EB80004168384676
S31508005140FBF73AF90646FBF7ADFB42464B46CDE977
S315080051500001FBF7C0FA0446FBF7E8FB0BEB4B0133
S31508005160744A02EB810188600BF1010BBBF1080F51
S31508005170B8DBEFE19EA1089801F058F98246BAF12A
S31508005180000F07D064210120FEF760FEFF206D495D
S315080051900870DFE198A1089801F048F98246BAF14B
S315080051A0000F07D064210120FEF750FE0120654953
S315080051B00870CFE192A1089801F038F98246BAF151
S315080051C0000F07D064210120FEF740FE02205D494A
S315080051D00870BFE18CA1089801F028F98246BAF157
S315080051E0000F13D064210120FEF730FE88480078AE
S315080051F001F082FB86480078401C854908700846FD
S3150800520000780728B5DD00200870A3E181A1089879
S3150800521001F00CF98246BAF1000F07D0642101208B
S31508005220FEF714FE04204749087093E17BA108980D
S3150800523001F0FCF88246BAF1000F07D0642101207C
S31508005240FEF704FE05203F49087083E175A108981A
S3150800525001F0ECF88246BAF1000F07D0642101206C
S31508005260FEF7F4FD06203749087073E16FA1089828
S3150800527001F0DCF88246BAF1000F03D06DA001F008
S3150800528081F967E16CA1089801F0D0F88246BAF175
S31508005290000F19D005AA6AA16C48FAF779FF002809
S315080052A087D0284905980870059810B968A001F0B4
S315080052B0A1FB0598022802D169A001F09BFB642195
S315080052C00120FEF7C3FD45E169A1089801F0AEF893
S315080052D08246BAF1000F1CD0FF201A4908700A202E
S315080052E0FEF71CFE14A0FFF7F5FB0A20FEF716FED4
S315080052F063A001F047F90A20FEF710FE68A001F046
S3150800530041F90A20FEF70AFE64210120FEF79EFDF8
S3150800531020E1C9E0244452532100000068656C6C02
S315080053206F20776F726421002444535421000000D3
S31508005330310000205C160020233235355044535482
S315080053402100000030000020244453543A00000095
S31508005350244453543A2564210000000023253033A1
S315080053606450445354210D0A0000000038110020EF
S315080053702452535421000000245054473A00000098
S31508005380245054473A25642D256421002444475364
S315080053903A000000244447533A25642100000000DF
S315080053A0244447543A0000004400002040000020EE
S315080053B03C000020244447543A25642D25642C25B6
S315080053C064210000340000203800002024444A529A
S315080053D02100000023323535503135303054323013
S315080053E03030210D0A000000C415002000003440AA
S315080053F024444A4D532100005953534221000000CA
S31508005400444A4A5121000000524742442100000004
S3150800541054000020534B4A51210000004857434688
S3150800542021000000434D4A512100000024474554FD
S31508005430412100004141410024534D4F444500009D
S3150800544024534D4F4445256421000000BC16002016
S31508005450233031305031353132543030303021003C
S31508005460233031305031353131543030303021002D
S3150800547024534D4152545F53544F502100000000AD
S3150800548023303036503135303054303030302123E7
S31508005490303037503135303054303030302100001C
S315080054A0404F4B21000000002CA1089800F0BEFFD9
S315080054B08246BAF1000F4DD002A803A904AB05AA8B
S315080054C0CDE9001027A10898FAF762FE10B32AA0C2
S315080054D001F058F80398FBF76DF904460498FBF7B2
S315080054E069F905460598FBF765F9064622462946F1
S315080054F0029BFFF74DF970B120212548FCF7B4F857
S315080055003220FEF70BFD20212148FCF7ABF83220AC
